:020000040800F2
:1000000000000220A534010889010008F13401082C
:10001000E9010008F1010008F901000800000000F2
:1000200000000000000000000000000039B90008D6
:100030000102000800000000BDBA00080DBB000866
:10004000F1340108F1340108F1340108F1340108F8
:10005000F1340108F1340108291200085512000892
:1000600081120008AD120008F1340108F1340108D2
:10007000F1340108F1340108F1340108F1340108C8
:10008000F1340108F1340108F1340108F1340108B8
:10009000F1340108F1340108F1340108F1340108A8
:1000A000F1340108F1340108F1340108F134010898
:1000B000F1340108F1340108F1340108F134010888
:1000C000F1340108F1340108F1340108F134010878
:1000D000F1340108F1340108F13401085508000831
:1000E000F1340108F1340108F1340108F134010858
:1000F000F1340108F1340108F1340108F134010848
:10010000F13401084D510008F1340108F1340108BF
:10011000F1340108F1340108F1340108F134010827
:10012000F1340108F1340108F13401085951000893
:10013000F1340108F1340108F1340108F134010807
:10014000F1340108F1340108F1340108F1340108F7
:10015000F1340108F1340108F1340108F1340108E7
:10016000F1340108F1340108F1340108F1340108D7
:10017000F1340108F1340108F1340108F1340108C7
:08018000F1340108F13401081B
:1001880080B400AFBD465DF8047B704780B48BB087
:1001980000AF78607B681B687B627B685B683B624A
:1001A8007B689B68FB617B68DB68BB617B681B695C
:1001B8007B617B685B693B617B689B69FB607B68F3
:1001C800DB69BB60FEE700BF1EF0040F0CBFEFF356
:1001D8000880EFF309808169004A104795010008FB
:1001E80080B400AFFEE700BF80B400AFFEE700BFF9
:1001F80080B400AFFEE700BF80B400AFBD465DF835
:10020800047B704780B500AF154B154A126842F061
:1002180001021A60124B00229A60114A104B1B68A7
:1002280023F0847323F4803313600D4B0D4A5A6016
:100238000B4B0B4A126822F480221A60084B0022EA
:10024800DA6000F08FF8084B4FF000629A60064BB6
:10025800054AD2F8882042F47002C3F8882080BD8D
:10026800003802401030002400ED00E080B487B070
:1002780000AF00233B6100237B610223FB60002366
:10028800BB6002237B60324B9B6803F00C033B612D
:100298003B69042B07D0082B09D0002B3FD12D4BED
:1002A8002D4A1A603FE02B4B2C4A1A603BE0284B42
:1002B8005B6803F480039B0DBB60254B5B6803F010
:1002C8003F037B60BB68002B0DD0244A7B68B2FBE0
:1002D800F3F21F4B596847F6C0730B409B0903FBA9
:1002E80002F37B610CE01C4A7B68B2FBF3F2184B0B
:1002F800596847F6C0730B409B0903FB02F37B6107
:10030800134B5B6803F440331B0C01335B00FB6049
:100318007A69FB68B2FBF3F20E4B1A6003E00D4BEF
:100328000D4A1A6000BF0A4B9B6803F0F0031B09D3
:100338000B4AD35CDBB23B61064B1A683B69DA4077
:10034800044B1A601C37BD465DF8047B704700BF3C
:1003580000380240000000200024F40000127A0057
:100368000400002080B483B000AF00237B6000232A
:100378003B60414B404A126842F480321A603E4B5F
:100388001B6803F400333B607B6801337B603B6888
:10039800002B03D17B68B3F5A06FF0D1364B1B68F7
:1003A80003F40033002B02D001233B6001E000235B
:1003B8003B603B68012B42D12F4B2F4A126C42F015
:1003C80080521A642D4B2D4A126842F480421A60FA
:1003D800294B294A92689A60274B274A926842F427
:1003E80000429A60244B244A926842F4A0529A60D0
:1003F800214B234A5A60204B1F4A126842F08072F0
:100408001A6000BF1C4B1B6803F00073002BF9D067
:100418001C4B40F205621A60174B174A926822F08B
:1004280003029A60144B144A926842F002029A60DE
:1004380000BF114B9B6803F00C03082BF9D10E4B3E
:100448000D4A926822F400029A600B4B0E4AC3F8D8
:100458008420094B084A126842F080621A6000BF83
:10046800054B1B6803F00063002BF9D00C37BD4621
:100478005DF8047B704700BF003802400070004000
:1004880008544007003C02400030005080B500AFDF
:1004980009484FF480510FF0DFFF4FF4FA600CF079
:1004A80091FB05484FF480510FF0E4FF4FF4FA60D8
:1004B8000CF088FBECE700BF000C024080B584B06C
:1004C80000AF78603C23FB603C23BB600C484FF4D2
:1004D80000510FF0C1FF4FF47A700CF073FBFB680A
:1004E8000533FB60BB680533BB6005484FF400511A
:1004F8000FF0C0FF4FF47A700CF064FBE6E700BF22
:10050800000C024080B500AF4FF4165000F042F9DD
:100518001048114900F016FA0E48104900F012FA76
:1005280000F052FD01F0ACF80A480D4900F00AFA53
:1005380000F0FCFD01F046FC01F018FD05480949F2
:1005480000F000FA01F030FE0248074900F0FAF91D
:1005580080BD00BF004800404443010854430108DF
:10056800684301087C4301089043010880B584B0C2
:1005780004AF4FF440700EF0D7F8FFF7C3FF012324
:1005880000930023019300230293002303930B4855
:100598000B49822200230CF0C3F9022300930023A5
:1005A80001930023029300230393064806498222FD
:1005B80000230CF0B5F90CF0FBFCFEE7C5040008BD
:1005C8009C43010895040008A843010880B400AFC3
:1005D800BD465DF8047B704780B500AF0BF05CFA50
:1005E800FEE700BF80B400AFBD465DF8047B7047EE
:1005F80080B582B000AF786039600BF04DFAFEE745
:1006080080B485B000AFF860B9607A604FF0FF330E
:1006180018461437BD465DF8047B704780B584B032
:1006280000AFF860B9607A6012F060FF03461622E6
:100638001A604FF0FF3318461037BD4680BD00BF23
:1006480080B485B000AFF860B9607A6000231846BE
:100658001437BD465DF8047B704700BF80B586B08F
:1006680000AFF860B9607A60BB68002B01D1002345
:100678001AE000237B6112E000BF0D4B1B889BB280
:1006880003F04003002BF8D07B69BA6813441B7849
:100698000748194612F074FC7B6901337B617A695B
:1006A8007B689A42E8DB7B6818461837BD4680BDF0
:1006B8000048004080B483B000AF7860002318463B
:1006C8000C37BD465DF8047B704700BF80B584B029
:1006D80000AF7860114B1B68002B02D10F4B104AFA
:1006E8001A600E4B1B68FB600C4B1A687B681A4437
:1006F8006B469A4207D912F0F9FE03460C221A609B
:100708004FF0FF3306E0054B1A687B681A44034B29
:100718001A60FB6818461037BD4680BD900100205E
:100728000C46012080B582B000AF78603960386827
:1007380000213C2212F0F8FE3B684FF400525A6048
:10074800002318460837BD4680BD00BF80B483B07B
:1007580000AF7860012318460C37BD465DF8047B6E
:10076800704700BF80B582B000AF7860396012F082
:10077800BDFE034616221A604FF0FF3318460837AD
:10078800BD4680BD80B400AF01231846BD465DF864
:10079800047B704780B58AB000AF78604FF4802042
:1007A800012110F031FA0220012110F0D3F94FF4A1
:1007B80040633B62022387F82430022387F8253000
:1007C800002387F82630012387F8273007F1200314
:1007D8001C4819460FF026FD1A480A2107220FF077
:1007E8008FFE18480B2107220FF08AFE7B683B61B9
:1007F8000023BB820023FB8200233B830023BB83AF
:100808000C237B8307F110030F48194612F024FAD2
:100818000D4840F22551012212F058FD27233B7361
:1008280000237B730023BB730123FB7307F10C03C5
:1008380018460DF08BFF0448012112F023FB2837DE
:10084800BD4680BD000402400048004080B582B02B
:1008580000AF354840F2255112F0ACFD0346002B9D
:100868005FD032484FF480410FF038FE2E4812F026
:1008780099FB0346DAB22E4B1A702E4B1B780F2BBE
:100888002AD82C4B1B782A4A11782B4AD154284B4A
:100898001B78302B04D125484FF400410FF01EFE81
:1008A800244B1B78244AD35CDBB20D2B06D0214B9A
:1008B8001B78214AD35CDBB2642B06D11F4B012283
:1008C8001A701C4B00221A700CE01A4B1B7801336B
:1008D800DAB2184B1A7005E0184B01221A70154B42
:1008E80000221A70154B1B78002B1AD00E4812499B
:1008F80000F028F80C48124900F024F800F012F92A
:100908000E4B00221A7000237B6007E00A4A7B68BE
:10091800134400221A707B6801337B607B680F2BBD
:10092800F4DD0837BD4680BD00480040000C024099
:10093800802F0120A4010020842F01209401002091
:10094800B443010880B582B000AF7860396012E026
:1009580000BF0D48802112F001FD0346002BF8D09E
:100968003B681B78DBB27868194612F009FB3B68D4
:100978005A1C3A601B783B681B78DBB2002BE7D126
:100988000837BD4680BD00BF0048004080B58AB02A
:1009980000AF786039603B68002B0CD13E4B1B7868
:1009A8005A1CD1B23C4A117007F128010B4430227D
:1009B80003F8142C29E028E03968384BA3FB0123FD
:1009C800DA0813469B0013445B00CA1A344B1A60BA
:1009D800334B1B683A68D31A3B603A682F4BA3FB2A
:1009E8000213DB083B602C4B1B782D4A1268D2B2ED
:1009F8003032D2B207F128010B4403F8142C264BED
:100A08001B780133DAB2244B1A703B68002BD3D120
:100A180000237B6215E07B6A5A1C7A621E4A1278B0
:100A2800013AD1B21C4A11701B4A127807F1280109
:100A38000A4412F8142CD2B207F128010B4403F827
:100A4800202C154B1B78002BE5D107F108027B6A97
:100A5800134400221A7007F1080312481946FFF7D9
:100A680071FF0D4B00221A7000233B620EE007F164
:100A780014023B6A134400221A7007F108023B6A09
:100A8800134400221A703B6A01333B623B6A092B0C
:100A9800EDDD2837BD4680BDA5010020CDCCCCCCEE
:100AA800A80100200048004080B582B000AF03468E
:100AB800FB7100BF0D4B1B68184600214FF0FF3239
:100AC80000230BF0ABFB0346002BF3D0FB799BB262
:100AD8000748194612F054FA054840F227710122D6
:100AE80012F0F4FB0837BD4680BD00BF9801002016
:100AF8000048004080B582B000AF00BF084B1A68BC
:100B08003B1D104619464FF0FF3200230BF086FBC1
:100B18000346002BF2D03B7918460837BD4680BD06
:100B28009C01002080B582B000AFA34B1B78002B3E
:100B380000F0B981A14B1B78DBB22B2B2ED1A04B37
:100B48001A68A04B1B681A449D4B1A609E4B1A6882
:100B58009C4B1B681A449C4B1A60994B1A689A4B19
:100B68001B681046194600F01DFA98489849FFF787
:100B7800E9FE934B1B6895481946FFF707FF934812
:100B88009449FFF7DFFE904B1B6890481946FFF722
:100B9800FDFE8E489049FFF7D5FE84E1874B1B7810
:100BA800DBB22D2B2ED1864B1A68864B1B68D21AC6
:100BB800834B1A60844B1A68824B1B68D21A824B8B
:100BC8001A607F4B1A68804B1B681046194600F064
:100BD800E9F97E487E49FFF7B5FE794B1B687B48EB
:100BE8001946FFF7D3FE79487A49FFF7ABFE764BF3
:100BF8001B6876481946FFF7C9FE74487649FFF71F
:100C0800A1FE50E16D4B1B78DBB2652B02D100F0E1
:100C180083FC48E1694B1B78DBB26E2B0BD16B4828
:100C28006E49FFF78FFE012000F056FD67486A49BC
:100C3800FFF788FE37E1614B1B78DBB2642B0BD1E1
:100C480062486749FFF77EFE022000F045FD5F48D5
:100C58006149FFF777FE26E1584B1B78DBB2612B21
:100C68000BD15A485F49FFF76DFE002000F034FDB4
:100C780056485949FFF766FE15E1504B1B78DBB221
:100C8800752B0BD151485849FFF75CFE012000F045
:100C980083FD4E485049FFF755FE04E1474B1B784A
:100CA800DBB26B2B0BD149485049FFF74BFE0220B2
:100CB80000F072FD45484849FFF744FEF3E03F4B1A
:100CC8001B78DBB2772B0BD140484949FFF73AFE36
:100CD800002000F061FD3D483F49FFF733FEE2E0A8
:100CE800364B1B78DBB26D2B04D100F0EFF800F027
:100CF80007F9D8E0314B1B78DBB2712B04D100F037
:100D0800F1F800F00FF9CEE02C4B1B78DBB2632B27
:100D180002D100F0CDFFC6E0284B1B78DBB2662B72
:100D28000AD12A483349FFF70DFE28482A49FFF718
:100D380009FE02F029FDB6E0204B1B78DBB2622BDE
:100D48000AD122482C49FFF7FDFD20482249FFF728
:100D5800F9FD02F037FEA6E0184B1B78DBB26C2BCE
:100D68000AD11A482549FFF7EDFD18481A49FFF737
:100D7800E9FD03F067F896E0104B1B78DBB2722BA5
:100D88000AD112481E49FFF7DDFD10481249FFF746
:100D9800D9FD02F037FF86E0084B1B78DBB2732BD6
:100DA80032D10A481749FFF7CDFD08480A49FFF72D
:100DB800C9FD01F083FE76E094010020842F012014
:100DC80028000020240000202C00002000480040BB
:100DD800B8430108C0430108C8430108CC430108CF
:100DE800D8430108E4430108F0430108FC43010823
:100DF80008440108144401081C4401082844010857
:100E08003044010838440108284B1B78DBB2742BA6
:100E180041D101F083F80346FB7125482549FFF7C6
:100E280091FDFB7922481946FFF7B0FD2048224979
:100E3800FFF788FDFB79002B08D11D481F49FFF7F4
:100E480081FD1B481C49FFF77DFD23E0FB79012B41
:100E580008D117481A49FFF775FD15481649FFF7D5
:100E680071FD17E0FB79022B08D111481549FFF7EE
:100E780069FD0F481049FFF765FD0BE0FB79032B6F
:100E880008D10B481049FFF75DFD09480A49FFF7EB
:100E980059FD08E007E006480449FFF753FD0448F8
:100EA8000549FFF74FFD0837BD4680BD842F012057
:100EB8000048004040440108C84301084C44010868
:100EC80058440108644401087044010880B500AF23
:100ED80003484FF4007101220FF0DAFA80BD00BF19
:100EE800000C024080B500AF04484FF400710022A6
:100EF8000FF0CEFA00F016F880BD00BF000C0240DB
:100F080080B500AF06484FF4806101220FF0C0FAA7
:100F180003484FF4006101220FF0BAFA80BD00BF08
:100F2800000C024080B500AF07484FF480610022F2
:100F38000FF0AEFA04484FF4006100220FF0A8FA4F
:100F4800022000F003F880BD000C024080B582B09A
:100F580000AF0346FB71FB79002B02D0FB79022B13
:100F680008D10D4B40F253221A600C4840F253212D
:100F780010F04CFDFB79012B02D0FB79022B08D134
:100F8800074B40F253221A60044840F2532110F0F4
:100F98004BFD0837BD4680BD2800002000080040F2
:100FA8002C00002080B582B000AF78603960054819
:100FB800796810F02BFD0348396810F035FD0837C3
:100FC800BD4680BD0008004080B500AF00F004F8C1
:100FD80000F030F880BD00BF80B582B000AF0820B7
:100FE80001210FF0B7FD4FF460633B6001233B71B3
:100FF8000023BB7103237B710023FB713B460C4824
:1010080019460FF00FF90A484FF4007100220FF04B
:101018003FFA07484FF4806100220FF039FA04487C
:101028004FF4006100220FF033FA0837BD4680BD47
:10103800000C024080B58AB000AF042001210FF0F7
:10104800E3FD082001210FF085FD4FF470433B625A
:10105800022387F82430002387F82630032387F8F3
:101068002530012387F8273007F120032D4819463A
:101078000FF0D8F82B480C2102220FF041FA29482A
:101088000D2102220FF03CFA26480E2102220FF011
:1010980037FA24480F2102220FF032FA40F2AF4308
:1010A800BB610623BB820023BB830023FB8207F1BD
:1010B80014031D48194610F085F870233B8001235E
:1010C8007B800023BB8140F25323BB603B4616481C
:1010D800194610F019FA1448082110F027FD3B466C
:1010E8001148194610F08AFA0F48082110F03AFD05
:1010F8003B460D48194610F009FB0B48082110F033
:101108004FFD3B460848194610F086FB0648082163
:1011180010F062FD0448012110F0D6F92837BD46C9
:1011280080BD00BF000C02400008004080B582B0BE
:1011380000AF012001210FF00DFD3B4618460FF0CE
:10114800FFF80F233B6000233B7103237B710123CE
:10115800FB713B46164819460FF064F8154800F035
:10116800D3F8154800F0D0F8124B01229A80114BA1
:101178000422DA80104B02229A800F4B0822DA8070
:1011880000200621012200F019F80120072102227F
:1011980000F014F802200821042200F00FF80320C0
:1011A8000921082200F00AF80837BD4680BD00BFB3
:1011B80000000240A42F0120942F012080B586B0A2
:1011C80000AF0B463A600246FA71BB714FF480409B
:1011D80001210FF037FDFB79002019460DF02EFA9A
:1011E8003B683B6100233B7510237B750123BB756E
:1011F80007F1100318460EF02DFC38680EF00CFDB0
:10120800BB793B7303237B730323BB730123FB73FA
:1012180007F10C0318460DF099FA1837BD4680BD42
:1012280080B500AF01200EF0D3FC0346002B0AD096
:10123800054B1B685A1C044B1A60034800F076F8EB
:1012480001200EF0E9FC80BDA42F012080B500AF7D
:1012580002200EF0BDFC0346002B0AD0054B1B688C
:101268005A1C044B1A60034800F060F802200EF084
:10127800D3FC80BD942F012080B500AF04200EF070
:10128800A7FC0346002B0AD0054B1B685A1C044BCD
:101298001A60034800F04AF804200EF0BDFC80BD37
:1012A800A42F012080B500AF08200EF091FC034662
:1012B800002B0AD0054B1B685A1C044B1A600348C4
:1012C80000F034F808200EF0A7FC80BD942F012010
:1012D80080B485B000AF78607B68BB600023BB73C7
:1012E8001437BD465DF8047B704700BF80B485B0F5
:1012F80000AF78607B68BB600123BB731437BD46C1
:101308005DF8047B704700BF80B483B000AF78609D
:101318007B6800221A607B6800221A727B680022B0
:101328005A720C37BD465DF8047B704790B583B0A0
:1013380000AF78607B681B7A9B00DBB203F00F0379
:10134800DCB27B689B88114819460FF035F80346D4
:101358005B00DBB222461343DCB27B68DB880B48B8
:1013680019460FF029F80346DBB222461343DBB2D5
:10137800DAB27B681A727B681B7A03F00F03044A9F
:10138800D25C7B685A720C37BD4690BD00000240A3
:101398003000002080B485B000AF786039607B6889
:1013A8005B7ABB733B685B7A7B73BB7B002B05D195
:1013B8007B7B002B02D10123FB7325E0BB7B022B37
:1013C80005D17B7B012B02D10223FB731CE0BB7B85
:1013D800012B05D17B7B022B02D10323FB7313E086
:1013E800BB7B012B05D17B7B012B02D10423FB7333
:1013F8000AE0BB7B022B05D17B7B022B02D10523A4
:10140800FB7301E00823FB737B6800221A723B68B8
:1014180000221A72FB7B18461437BD465DF8047B20
:10142800704700BF80B582B000AF05480549FFF797
:10143800B1FF0346FB71FB7918460837BD4680BDEE
:10144800A42F0120942F012080B582B000AF052081
:10145800FFF73EFF064B1B687B60054B00221A60B6
:101468000520FFF743FF7B6818460837BD4680BD57
:10147800A42F012080B582B000AF0A20FFF728FF13
:10148800064B1B687B60054B00221A600A20FFF799
:101498002DFF7B6818460837BD4680BD942F012074
:1014A80080B582B000AF0520FFF712FF0A4B1B681A
:1014B8007B60094B5B7A012B02D17B685B427B60C6
:1014C800054B00221A600520FFF710FF7B681846BD
:1014D8000837BD4680BD00BFA42F012080B582B06B
:1014E80000AF0A20FFF7F4FE0A4B1B687B60094B2C
:1014F8005B7A022B02D17B685B427B60054B002242
:101508001A600A20FFF7F2FE7B6818460837BD46C6
:1015180080BD00BF942F012080B500AF0F20FFF7DA
:10152800D7FE28482849FFF70DFA284B5B7A25484B
:101538001946FFF72BFA23482549FFF703FA254BED
:101548005B7A20481946FFF721FA2048FFF7EEFE9C
:101558002048FFF7EBFE1B481F49FFF7F3F91B4B29
:101568005B7A18481946FFF711FA16481B49FFF726
:10157800E9F9184B5B7A13481946FFF707FA11483F
:101588001749FFF7DFF9114B1B680E481946FFF79B
:10159800FDF90C481349FFF7D5F90E4B1B680948AC
:1015A8001946FFF7F3F907480F49FFF7CBF9074B3F
:1015B80000221A60074B00221A600F20FFF796FEE0
:1015C80080BD00BF004800407C440108A42F0120D2
:1015D80088440108942F012094440108A04401087C
:1015E800AC440108B4440108BC44010880B582B089
:1015F80000AF082001210FF0ADFAD8233B6000238B
:101608003B7102237B710223FB713B460348194659
:101618000EF008FE0837BD4680BD00BF000C024032
:1016280080B582B000AF102001210FF093FA0F238C
:101638003B6001233B710023BB7103237B710023B3
:10164800FB713B460D4819460EF0ECFD0B48012195
:1016580000220EF01DFF0948022100220EF018FF9B
:101668000648042100220EF013FF04480821002236
:101678000EF00EFF0837BD4680BD00BF00100240C7
:1016880080B582B002AFFFF7CBFFFFF7AFFF0C4B7F
:1016980000930C483221012203230CF07FFB024601
:1016A800094B1A60094B0093094832210122032390
:1016B8000CF074FB0246074B1A60BD4680BD00BFA4
:1016C80061180008C0440108B42F0120311900082E
:1016D800E4440108B02F012090B585B002AF7860CE
:1016E8002A4B1C680BF042FD03460022009220465C
:1016F80000211A4600230CF085FB7B68002B0DD1D6
:101708002348012100220EF0C3FE214802210022B5
:101718000EF0BEFE1F4B00221A7034E07B68012BCE
:1017280017D100F069F90346012B12D000F064F9D3
:101738000346032B0DD01648012101220EF0A8FE06
:101748001348022100220EF0A3FE124B01221A7048
:1017580019E07B68022B16D100F04EF90346022BE4
:1017680011D000F049F90346032B0CD00848012199
:1017780000220EF08DFE0648022101220EF088FE9E
:10178800044B02221A700C37BD4690BDB42F0120BD
:1017980000100240AC01002090B585B002AF78601F
:1017A8002A4B1C680BF0E2FC0346002200922046FC
:1017B80000211A4600230CF025FB7B68002B0DD175
:1017C8002348042100220EF063FE2148082100224C
:1017D8000EF05EFE1F4B00221A7034E07B68012B6E
:1017E80017D100F02FF90346012B12D000F02AF987
:1017F8000346032B0DD01648042101220EF048FEA3
:101808001348082100220EF043FE124B01221A70E1
:1018180019E07B68022B16D100F014F90346022B5D
:1018280011D000F00FF90346032B0CD0084804210F
:1018380000220EF02DFE0648082101220EF028FE97
:10184800044B02221A700C37BD4690BDB02F012000
:1018580000100240AD01002080B582B002AF2F4BCE
:101868001B78012B0FD0022B31D0002B00D052E077
:101878002B4B1B68002200921846012100220023EE
:101888000CF0C0FA47E0274B1B685A1C254B1A601E
:1018980000F0B2F80346012B04D000F0ADF803467F
:1018A800032B05D10020FFF717FF1C4B00221A70ED
:1018B8001C4B1B68132B09DD0020FFF70DFF174B8E
:1018C80000221A70174B00221A6024E023E0154BFF
:1018D8001B685A1C134B1A6000F08EF80346022B43
:1018E80004D000F089F80346032B05D10020FFF748
:1018F800F3FE0A4B00221A700A4B1B68132B09DDF2
:101908000020FFF7E9FE054B00221A70054B002264
:101918001A60FFE700BFBD4680BD00BFAC010020D4
:10192800B42F0120B001002080B582B002AF2F4B48
:101938001B78012B0FD0022B31D0002B00D052E0A6
:101948002B4B1B680022009218460121002200231D
:101958000CF058FA47E0274B1B685A1C254B1A60B5
:1019680000F070F80346012B04D000F06BF8034632
:10197800032B05D10020FFF70FFF1C4B00221A7024
:101988001C4B1B68132B09DD0020FFF705FF174BC5
:1019980000221A70174B00221A6024E023E0154B2E
:1019A8001B685A1C134B1A6000F04CF80346022BB4
:1019B80004D000F047F80346032B05D10020FFF7B9
:1019C800EBFE0A4B00221A700A4B1B68132B09DD29
:1019D8000020FFF7E1FE054B00221A70054B00229C
:1019E8001A60FFE700BFBD4680BD00BFAD01002003
:1019F800B02F0120B401002080B500AF0F480821A6
:101A08000EF0DAFC0346002B0CBF00230123DBB2E7
:101A18001A460B4B1A60094810210EF0CDFC0346FC
:101A2800002B01D0022300E00023054A12681A4364
:101A3800034B1A60024B1B68184680BD000C02401D
:101A4800B801002080B500AF0F4880210EF0B4FC2B
:101A58000346002B0CBF00230123DBB21A460B4BB5
:101A68001A60094840210EF0A7FC0346002B01D05C
:101A7800022300E00023054A12681A43034B1A6048
:101A8800024B1B68184680BD000C0240BC010020B8
:101A980080B582B000AF284B1B8807EE103AF8EEED
:101AA800477AC7ED017A97ED017ADFED247A87EE60
:101AB800277ADFED237A67EE277A9FED227A77EE91
:101AC800677AC7ED017A97ED017ADFED1F7A67EE45
:101AD800277AC7ED017A1D481D49FEF733FF164BDB
:101AE8001B881A481946FEF751FF18481949FEF78E
:101AF80029FFD7ED017AFCEEE77A17EE903A134802
:101B08001946FEF743FF11481349FEF71BFF97EDEF
:101B1800017ADFED0C7A67EE277AFCEEE77A17EEAA
:101B2800903A0A481946FEF731FF08480B49FEF774
:101B380009FF0837BD4680BDB82F01200000804549
:101B48000000C0400000A04000007A440048004067
:101B580008450108104501081845010820450108F5
:101B680080B582B000AF474B5B8807EE103AF8EEBD
:101B7800477AC7ED017A434B9B8807EE103AF8EE97
:101B8800477AC7ED007A97ED017ADFED3F7A27EEC5
:101B9800277ADFED3E7AC7EE277AC7ED017A97ED0F
:101BA800007ADFED397A27EE277ADFED387AC7EE4B
:101BB800277AC7ED007A36483649FEF7C3FE314B1F
:101BC8005B8833481946FEF7E1FE31483249FEF793
:101BD800B9FED7ED017AFCEEE77A17EE903A2C4879
:101BE8001946FEF7D3FE2A482C49FEF7ABFE97EDBF
:101BF800017ADFED2B7A67EE277AC7ED017AD7ED08
:101C0800017AFCEEE77A17EE903A21481946FEF77A
:101C1800BDFE1F482349FEF795FE1D482249FEF7E1
:101C280091FE184B9B881A481946FEF7AFFE1848D4
:101C38001949FEF787FED7ED007AFCEEE77A17EE32
:101C4800903A13481946FEF7A1FE11481749FEF7C6
:101C580079FE97ED007ADFED127A67EE277AC7ED05
:101C6800007AD7ED007AFCEEE77A17EE903A08484A
:101C78001946FEF78BFE06480A49FEF763FE083749
:101C8800BD4680BDB82F01200000404000008040C4
:101C9800004800402445010810450108184501087E
:101CA80000002040204501082C4501083445010862
:101CB80080B500AFFFF7ECFEFFF752FF80BD00BF15
:101CC80080B483B000AF164B1B8807EE103AF8EECD
:101CD800477AC7ED017A97ED017ADFED127A87EE40
:101CE800277ADFED117A67EE277A9FED107A77EE83
:101CF800677AC7ED017A97ED017ADFED0D7A67EE25
:101D0800277AC7ED017AD7ED017AFDEEE77A17EE6B
:101D1800903A18460C37BD465DF8047B704700BF03
:101D2800B82F0120000080450000C0400000A040FE
:101D380000007A4480B483B000AF0E4B5B887B60B0
:101D48000D4B1B68DA007B681A440B4B1B68D31ACF
:101D5800DB107B60084B7A681A607B689A007B68A6
:101D6800D31A9B107B607B6818460C37BD465DF81C
:101D7800047B7047B82F0120C001002080B483B0D5
:101D880000AF0E4B9B887B600D4B1B68DA007B68AD
:101D98001A440B4B1B68D31ADB107B60084B7A681C
:101DA8001A607B689A007B68D31A9B107B607B68FB
:101DB80018460C37BD465DF8047B7047B82F0120E4
:101DC800C401002080B500AF00F06AF800F00EF8FA
:101DD800054801210DF060F8034801210DF040F895
:101DE80001480CF085FF80BD0020014080B58CB013
:101DF80000AF042001210EF0ADFE4FF480700121E8
:101E08000EF020FF3223BB62032387F82C30002317
:101E180087F82F3007F128031F4819460EF002FAF9
:101E280000233B6101233B7501237B750023BB61C4
:101E38000023FB6100233B62032387F8243007F16A
:101E48001003164819460CF03FFD00233B604FF481
:101E580080337B600023BB600023FB603B46184651
:101E68000CF0A4FD0D480B21012201230CF07CFE8F
:101E78000A480E21022201230CF076FE07480F21A2
:101E8800032201230CF070FE044801210CF0CCFD64
:101E98003037BD4680BD00BF000802400020014029
:101EA80080B590B000AF4FF4800001210EF052FED3
:101EB80000237B60164BBB60164BFB6000233B6125
:101EC80003237B610023BB614FF48063FB614FF404
:101ED80000633B624FF400537B624FF48073BB6234
:101EE8004FF40033FB6200233B6301237B63002331
:101EF800BB630023FB633B1D074819460DF0DCFA62
:101F0800054801210DF064FB4037BD4680BD00BF88
:101F18004C200140B82F01201064024080B582B0E7
:101F280000AF104840210EF047FA0346002B0CBFC3
:101F380000230123DBB2FB710B4804210EF03CFAAD
:101F48000346002B01D0022300E00023F9791A464A
:101F58000B461343DBB2FB71FB7918460837BD46C5
:101F680080BD00BF001002400008024080B582B06A
:101F780000AF042001210EF0EDFD102001210EF02C
:101F8800E9FD00233B7102237B710123FB71402390
:101F98003B603B46064819460EF044F904233B6073
:101FA8003B46044819460EF03DF90837BD4680BD4A
:101FB800001002400008024080B483B000AF87EDF3
:101FC800010AD7ED017AF5EEC07AF1EE10FA08DDD4
:101FD80097ED017ADFED0B7A77EE277AFDEEE77A57
:101FE80007E097ED017ADFED077A77EE677AFDEE85
:101FF800E77A17EE903A18460C37BD465DF8047B31
:10200800704700BF0000003F80B483B000AF87ED89
:10201800010AD7ED017AF5EEC07AF1EE10FA04DD87
:10202800D7ED017AFDEEE77A05E0D7ED017AF1EE1A
:10203800677AFDEEE77A17EE903A18460C37BD46F8
:102048005DF8047B704700BF80B483B000AF87EDB4
:10205800010AD7ED017AF5EEC07AF1EE10FA02DD49
:102068004FF07E5300E0054B07EE903AB0EE670A5A
:102078000C37BD465DF8047B704700BF000080BF89
:1020880080B483B000AF87ED010AD7ED017AF5EE91
:10209800C07AF1EE10FA02DDD7ED017A03E0D7ED50
:1020A800017AF1EE677A17EE903A07EE903AB0EEC1
:1020B800670A0C37BD465DF8047B704780B588B069
:1020C80000AF87ED010A4FF07E53FB617B68BB616F
:1020D80002237B6100233B610023FB602FE097ED27
:1020E800077AD7ED067A77EE277AC7ED077A97ED64
:1020F800067AD7ED017A67EE277AC7ED067A7B690B
:1021080007EE103AF8EEC77A97ED067AC7EE277A07
:10211800C7ED067A7B6901337B613B6901333B611B
:1021280097ED067ADFED0B7A67EE277AB0EE670A4D
:10213800FFF76AFFF860FB68092B00DC02E03B69E7
:10214800092BCCDDFB6907EE903AB0EE670A203721
:10215800BD4680BD00007A4480B485B000AF87EDED
:10216800010A38600023FB604FF07E53BB600023F8
:10217800FB600AE097ED027AD7ED017A67EE277ADD
:10218800C7ED027AFB680133FB60FA683B689A4244
:10219800F0DBBB6807EE903AB0EE670A1437BD462D
:1021A8005DF8047B704700BF80B500AF02F0ACFF5C
:1021B8001B481C49002207F083FB03461A461A4BAA
:1021C8001A70194B1B78002B05D0174B1B78174832
:1021D800194611F0B1F9164816490B2207F0B4FB5D
:1021E80003461A46104B1A70134814490B2207F07D
:1021F800ABFB03461A460C4B1A700B4B1B78002B93
:1022080005D0094B1B780E48194611F095F9064B75
:102218001B78002B02D10B4811F08EF980BD00BF4E
:102228004C3601203C45010848360120404501084C
:10223800F0310120544501081C3401206045010893
:102248006C4501088445010880B500AF154808F0C1
:1022580033F803461A46144B1A70134B1B78002B9D
:1022680005D0114B1B781148194611F065F900206B
:102278000F49002207F024FB03461A460A4B1A703E
:10228800094B1B78002B05D0074B1B7809481946CA
:1022980011F052F9044B1B78002B02D1064811F0BB
:1022A8004BF980BDF031012048360120A4450108D2
:1022B8003C450108BC450108D045010880B582B0FD
:1022C80000AF786039603B1D0F48194604220F4B58
:1022D80007F0D6FD03461A460D4B1A703B460A48CE
:1022E80019460422094B07F0CBFD03461A46084B52
:1022F8001A70054807F034FF03461A46044B1A7053
:102308000837BD4680BD00BF1C34012018340120A9
:102318004836012080B582B000AF40F253237B607D
:102328003B1D0B48194604220A4B07F06BFC034679
:102338001A46094B1A70064807F012FF03461A4658
:10234800054B1A707B6818460837BD4680BD00BF2C
:102358001C340120EC3101204836012080B586B0BC
:1023680002AFF860B9607A603B607B6800933B68B5
:10237800019306480649FA68BB6808F07DFF0346E2
:10238800DAB2044B1A701037BD4680BDF031012017
:10239800E04501084836012080B588B004AFF860F0
:1023A800B9607A603B607B6800933B680193BB69C6
:1023B8000293FB69039306480649FA68BB6808F06C
:1023C8005BFF0346DAB2044B1A701037BD4680BD76
:1023D800F0310120F04501084836012080B58AB067
:1023E80006AFF860B9607A603B607B6800933B6831
:1023F8000193BB690293FB6903933B6A04937B6A6D
:10240800059306480649FA68BB6808F035FF034695
:10241800DAB2044B1A701037BD4680BDF031012086
:10242800044601084836012080B58AB006AFF86036
:10243800B9607A603B607B6800933B680193BB6935
:102448000293FB6903933B6A04937B6A05930648EE
:102458000649FA68BB6808F00FFF0346DAB2044B76
:102468001A701037BD4680BD1C340120044601088F
:102478004836012080B500AF074807F071FE0346D3
:102488001A46064B1A70064807F06AFE03461A46B3
:10249800024B1A7080BD00BFF03101204836012080
:1024A8001C34012090B583B002AF0E4B00930E4848
:1024B8004FF47A71012201230BF070FC02460B4B9A
:1024C8001A600A4B1C680AF051FE0346002200926B
:1024D800204600211A4600230BF094FC0437BD4621
:1024E80090BD00BFF92400082046010814340120DB
:1024F80080B500AF164B1A68164B1A60164B1A684F
:10250800144B5A60154B1B681A46154B1A60154B2D
:102518001B681A46124B5A6013480E490822134B7F
:1025280007F0AEFC03461A46114B1A700E480C49C8
:1025380008220E4B07F0A4FC03461A460C4B1A70EF
:10254800094807F00DFE03461A46094B1A7080BD6C
:1025580028000020403601202C000020A42F012054
:10256800E4310120942F0120F0310120183401209A
:102578004836012080B500AF554810F0DDFF02F065
:10258800C3FD54485449002207F09AF903461A46F5
:10259800524B1A70514B1B78002B05D04F4B1B78B0
:1025A8004F48194610F0C8FF4E484F490B2207F014
:1025B800CBF903461A46494B1A704C484C490B2232
:1025C80007F0C2F903461A46444B1A70434B1B786E
:1025D800002B05D0414B1B784648194610F0ACFF3C
:1025E800404845490C22454B07F04AFC03461A4629
:1025F8003A4B1A703B48424908F03EFE0346DAB2AD
:10260800364B1A703F4B1A683E4B5B68581E3D4963
:10261800486034483C4908F02FFE0346DAB22F4B95
:102628001A703A482F4908F0EFFD0346DAB22B4BEF
:102638001A70344B41221A60324B01225A602B48DF
:10264800304908222D4B07F01BFC03461A46234B42
:102658001A70224B1B78002B05D0204B1B782C4876
:10266800194610F069FF1F4807F026FE03461A4670
:102678001A4B1A701D4807F01FFE03461A46174BDF
:102688001A70164B1B78002B05D0144B1B78214869
:10269800194610F051FF00200F49002207F010F9E9
:1026A80003461A460D4B1A700C4B1B78002B05D0AD
:1026B8000A4B1B781848194610F03EFF074B1B7849
:1026C800002B02D1154810F037FF184680BD00BF17
:1026D800344601084C3601203C45010848360120A3
:1026E80040450108F031012048460108C02F01206B
:1026F800544601085C4601085000002018340120A7
:1027080070460108403601207846010888460108CD
:1027180098460108A4450108BC450108AC460108D3
:1027280080B586B000AF4C4810F006FF4B484C49C6
:10273800002207F0C5F803461A464A4B1A70494B5F
:102748001B78002B05D0474B1B784748194610F0DB
:10275800F3FE46484649012207F0F6F803461A46B2
:10276800404B1A7043484449012207F0EDF80346EC
:102778001A463C4B1A703B4B1B78002B05D0394B43
:102788001B783E48194610F0D7FE3D4B01221A60CF
:102798003B4B00225A603B4618461421334A08F046
:1027A80095FC3B78002B26D100BF324834490822DB
:1027B800344B07F027FA03461A462A4B1A70304B57
:1027C8001A682F4B5B68304811461A4610F0B4FE61
:1027D800264807F071FD03461A46224B1A70254811
:1027E80007F06AFD03461A461E4B1A701D4B1B78EC
:1027F800002B1AD013E03B4624481946FEF7A2F8EE
:1028080000237B6107E03A467B69134400221A7073
:102818007B6901337B617B69132BF4DDBBE7114BCB
:102828001B781B48194610F087FE00200C4900222F
:1028380007F046F803461A460A4B1A70094B1B78EC
:10284800002B05D0074B1B781248194610F074FE70
:1028580018461837BD4680BDC44601084C360120CD
:102868003C4501084836012040450108F031012067
:1028780048460108C02F0120544601085C4601085B
:1028880040360120EC310120D446010800480040C0
:10289800E4460108F846010890B585B002AF024643
:1028A8000B46FA71BB715C4B1B785C481946FEF706
:1028B8006DF8FB79782B04D1BB791846FEF70CFF2D
:1028C80006E0FB79792B03D1BB791846FEF764FF44
:1028D800FB79623B112B70D801A252F823F000BF9C
:1028E8005F290008C3290008C3290008C329000874
:1028F80039290008C3290008C3290008C32900088A
:10290800C3290008C329000883290008C32900082F
:10291800C3290008C3290008C3290008C3290008DF
:10292800A3290008312900080220FEF70FFB45E023
:10293800394B1B78002B03D0374B1B78022B09D15E
:10294800374B02221A7000F01FFF34483549FDF753
:10295800F9FF33E032E0304B1B78002B03D02E4BCD
:102968001B78032B04D12E4B03221A7001F02AF88E
:102978002A482D49FDF7E6FF20E0274B1B78002B5E
:1029880003D0254B1B78042B02D1254B04221A7047
:1029980022482649FDF7D6FF10E01F4B1B78002B75
:1029A80003D01D4B1B78052B02D11D4B05221A7035
:1029B8001A481F49FDF7C6FF00E000BF1D4B1B6802
:1029C800002B0DD01B4B1C680AF0D0FB03460022DD
:1029D8000092204600211A4600230BF013FA17E054
:1029E800154B009315481421012207230BF0D6F943
:1029F8000246104B1A600F4B1C680AF0B7FB0346DF
:102A080000220092204600211A4600230BF0FAF912
:102A18000C37BD4690BD00BFCC01002000480040E7
:102A2800CD0100200C470108144701081C47010884
:102A3800244701087C380120492A00082C4701084E
:102A480080B582B002AFFEF7EDFC03461A46154B7F
:102A58001A7015481549FDF775FF124B1B78124877
:102A68001946FDF793FF10481149FDF76BFF114B0D
:102A78001B78012B06D10B4B1B78012B02D1094B7C
:102A880000221A70074B1B78002B09D10A4B1B68D0
:102A98000022009218460121002200230BF0B2F90F
:102AA800BD4680BDCC0100200048004040470108D9
:102AB80044470108CD0100207C38012080B500AFD3
:102AC8000220FEF743FA024B01221A7080BD00BFB4
:102AD800CD01002090B583B002AF244B32221A609A
:102AE800234B1B68002B0BD0224B1B68002B07D0F5
:102AF8001F4B1A68204B1A601E4B1A681F4B1A602E
:102B08001F4B1B6818460BF0C7FB0346012B03D16C
:102B18001B4B1B68002B18D11A4B00931A486421D1
:102B2800012201230BF03AF90246154B1A60144BA7
:102B38001C680AF01BFB0346002200922046002175
:102B48001A4600230BF05EF90CE00D4B1C680AF0E6
:102B58000DFB034600220092204600211A4600235E
:102B68000BF050F90437BD4690BD00BFC8010020E6
:102B780088380120A8380120280000202C000020D7
:102B880080380120952B00084847010880B584B09B
:102B980002AFFEF759FC03463B60FEF76BFC0346A9
:102BA8007B60324B1B68002B41D0314B1B78012BCB
:102BB8003DD03B68002B02D17B68002B04D02B4B07
:102BC8001B685A1E294B1A603B68592B07DD3B6866
:102BD800642B02DD4FF0FF3302E0002300E0012305
:102BE800244A12681A44234B1A607B68592B07DD64
:102BF8007B68642B02DD4FF0FF3302E0002300E026
:102C080001231D4A12681A441B4B1A60194B1A6893
:102C1800194B1B6810461946FEF7C4F9154B1A687C
:102C2800164B1A60144B1A68154B1A6012E00220F2
:102C3800FEF78CF93B68002B0CD17B68002B09D17F
:102C4800104B1B6800220092184603210022002323
:102C58000BF0D8F8074B1868074B19683A687B6877
:102C6800FFF77CFB0837BD4680BD00BFC8010020C8
:102C7800CD010020280000202C00002088380120E9
:102C8800A83801208038012090B583B002AF244BCA
:102C980032221A60234B1B68002B0BD0224B1B6877
:102CA800002B07D01F4B1A68204B1A601E4B1A685E
:102CB8001F4B1A601F4B1B6818460BF0EDFA0346B2
:102CC800012B03D11B4B1B68002B18D11A4B009307
:102CD8001A486421012202230BF060F80246154BC2
:102CE8001A60144B1C680AF041FA0346002200924D
:102CF800204600211A4600230BF084F80CE00D4B07
:102D08001C680AF033FA034600220092204600218C
:102D18001A4600230BF076F80437BD4690BD00BF75
:102D2800C801002084380120EC310120280000204F
:102D38002C00002080380120492D00085847010840
:102D480080B584B002AFFEF77FFB03463B60FEF719
:102D580091FB03467B60474B1B68002B41D0464BD9
:102D68001B78012B3DD03B68002B02D17B68002BE0
:102D780004D0404B1B685A1E3E4B1A603F4B1A68E2
:102D88003B68592B07DD3B68642B02DD4FF0FF33AE
:102D980002E0002300E00123D21A384B1A60384BB6
:102DA8001A687B68592B07DD7B68642B02DD4FF0BE
:102DB800FF3302E0002300E00123D21A304B1A60EF
:102DC8002E4B1A682E4B1B6810461946FEF7EAF878
:102DD8002A4B1A682B4B1A60294B1A682A4B1A601F
:102DE80012E00220FEF7B2F83B68002B0CD17B689A
:102DF800002B09D1254B1B6800220092184603219D
:102E0800002200230AF0FEFF21482249FDF79AFD1F
:102E18001A4B1B681E481946FDF7B8FD1C481E4989
:102E2800FDF790FD164B1B6819481946FDF7AEFDD6
:102E380017481A49FDF786FD3B6815481946FDF7FE
:102E4800A5FD13481649FDF77DFD7B681048194616
:102E5800FDF79CFD0E481349FDF774FD074B1868F4
:102E6800074B19683A687B68FFF778FA0837BD4658
:102E780080BD00BFC8010020CD010020280000202F
:102E88002C00002084380120EC31012080380120FA
:102E9800004800406C47010870470108784701085E
:102EA8008047010888470108B0B588B002AFFEF72F
:102EB800CBFA03463B61FEF7DDFA03467B61FEF77A
:102EC800FFFE03467B60FEF735FF0346BB60FEF757
:102ED80055FF0346FB60264B1B685A1C244B1A609F
:102EE800234B1B68B3F5C87F03D0224B1B78012BFB
:102EF8002ED1214B1B6803F10C021F4B1A601F4B8C
:102F08001B6803F10C021D4B1A601B4B1A681B4B04
:102F18001B6810461946FEF745F8154B00221A6043
:102F2800164B1B68B3F5617F03D8124B1B78012B36
:102F38000ED10220FEF70AF8114B1B6800220092FE
:102F480018460321002200230AF05CFFFFF792FADB
:102F5800094B1868094B19683A697B69BD68FC68B0
:102F680000950194FFF718FA1837BD46B0BD00BFA9
:102F7800C8010020CD010020280000202C000020DE
:102F8800A4380120B0B586B002AFFEF75DFA03465B
:102F9800BB60FEF76FFA0346FB60FEF7CBFE034605
:102FA8003B60FEF7EBFE03467B60194B1B685A1C1F
:102FB800174B1A60164B1B68B3F5FA7F03D2154BF3
:102FC8001B78012B14D10220FDF7C0FFBB68002B32
:102FD8000ED1FB68002B0BD10F4B1B68002200920F
:102FE80018460321002200230AF00CFFFFF742FADB
:102FF8000A4B18680A4B1968BA68FB683D687C6810
:1030080000950194FFF7C8F91037BD46B0BD00BF61
:10301800C8010020CD010020A4380120280000208C
:103028002C000020B0B586B002AFFEF70DFA0346BB
:10303800BB60FEF71FFA0346FB60FEF77BFE034604
:103048003B60FEF79BFE03467B60314B1B68002B01
:1030580035D0304B1B78012B31D02D4B1B685A1EB5
:103068002B4B1A60BB6807EE103AF8EEC77A2A486D
:103078009FED2A0AF0EE670A00F076FF034603F593
:1030880016731A46264B1A60FB6807EE103AF8EEDC
:10309800C77A24489FED210AF0EE670A00F064FF22
:1030A800034603F516731A461F4B1A601C4B1A6821
:1030B8001D4B1B6810461946FDF774FF18E00220E7
:1030C800FDF744FFBB68002B12D1FB68002B0FD122
:1030D800164B1B6800220092184603210022002389
:1030E8000AF090FE12481349FDF72CFCFFF7C2F9CD
:1030F8000B4B18680C4B1968BA68FB683D687C680C
:1031080000950194FFF748F91037BD46B0BD00BFE0
:10311800C8010020CD0100208C3801200000A0410A
:1031280028000020AC3801202C000020A438012001
:10313800004800408C47010890B583B002AF2B4B84
:1031480060221A602A4B60221A60284B1A68284BA2
:103158001B6810461946FDF725FF264B00221A70FA
:10316800254B00221A60254B1B6818460BF094F873
:103178000346012B03D1214B1B68002B26D1204B82
:10318800009320481421012206230AF007FE024674
:103198001A4B1A601C481D49FDF7D4FB174B1B68D6
:1031A80019481946FDF7F2FB17481949FDF7CAFBFC
:1031B800124B1C6809F0DAFF0346002200922046F1
:1031C80000211A4600230AF01DFE0CE00B4B1C6878
:1031D80009F0CCFF034600220092204600211A463F
:1031E80000230AF00FFE0437BD4690BD28000020DA
:1031F8002C000020CD010020C8010020A4380120A7
:10320800B12E00089847010800480040A44701086B
:1032180088470108F0B589B004AFFEF741F90346C5
:10322800BB60FEF75BF90346FB60FEF783FD0346D0
:103238003B60FEF7A3FD03467B60A84B00221A60A3
:10324800A74B00221A60A74B1B68002B00F0928145
:10325800A54B1B78012B00F08D81A24B1B685A1ED1
:10326800A04B1A609F4B1A6840F6D8639A420AD955
:10327800BA68FB68104619469FED9C0ADFED9B0A69
:1032880000F088FF5FE1974B1A6840F642639A4264
:103298000AD9BA68FB68104619469FED950ADFED12
:1032A800930A00F077FF4EE18E4B1A6840F6AC5354
:1032B8009A420AD9BA68FB68104619469FED8C0AEB
:1032C800DFED8B0A00F066FF3DE1864B1A6840F699
:1032D80016539A420AD9BA68FB68104619469FEDF8
:1032E800840ADFED840A00F055FF2CE17D4B1B6852
:1032F800B3F5486F0AD9BA68FB68104619469FEDBE
:103308007D0ADFED7C0A00F045FF1CE1754B1A6869
:1033180040F6B8339A420AD9BA68FB68104619468B
:103328009FED730ADFED720A00F034FF0BE16D4B7D
:103338001A6840F6BE239A420AD9BA68FB68104652
:1033480019469FED6D0ADFED690A00F023FFFAE0E8
:10335800644B1A6840F628239A420AD9BA68FB686F
:10336800104619469FED640ADFED630A00F012FF6C
:10337800E9E05C4B1B68B3F5166F0AD9BA68FB68BD
:10338800104619469FED5D0ADFED5B0A00F002FF6B
:10339800D9E0544B1A6840F698039A420AD9BA6899
:1033A800FB68104619469FED550ADFED550A00F0F7
:1033B800F1FEC8E04B4B1A6840F602039A420AD95C
:1033C800BA68FB68104619469FED4D0ADFED4C0AB6
:1033D80000F0E0FEB7E0434B1B68B3F5E16F0AD994
:1033E800BA68FB68104619469FED460ADFED460AA3
:1033F80000F0D0FEA7E03B4B1A6840F272639A4295
:103408000AD9BA68FB68104619469FED3E0ADFEDF7
:103418003D0A00F0BFFE96E0324B1A6840F2DC53DA
:103428009A420AD9BA68FB68104619469FED360ACF
:10343800DFED340A00F0AEFE85E02A4B1A6840F250
:10344800E2439A420AD9BA68FB68104619469FEDCA
:103458002E0ADFED290A00F09DFE74E0214B1B685F
:10346800B3F57A7F0AD9BA68FB68104619469FED0A
:10347800220ADFED1E0A00F08DFE64E0194B1A687F
:1034880040F2EE239A420AD9BA68FB6810461946F8
:103498009FED160ADFED180A00F07CFE53E0114B91
:1034A8001B68B3F5FA7F0AD9BA68FB681046194653
:1034B8009FED0E0ADFED110A00F06CFE43E0094BA8
:1034C8001B68FA2B22D9BA68FB68104619469FED8B
:1034D800070ADFED0D0A00F05DFE34E0D0010020A0
:1034E800D4010020C8010020CD0100200000A04028
:1034F8000000204100007041000000000000A0C052
:103508000000F0C0000070C1000020C13B4B1B68E8
:10351800642B0AD9BA68FB68104619469FED380A29
:10352800DFED380A00F036FE0DE0344B1B68002B47
:1035380009D0BA68FB68104619469FED310ADFEDDD
:10354800300A00F027FE304B1B6803F516731A4645
:103558002E4B1A602E4B1B6803F516731A462D4B1B
:103568001A602A4B1A682B4B1B6810461946FDF740
:1035780019FD1BE00220FDF7E9FC274B00221A7019
:10358800BB68002B12D1FB68002B0FD1234B1B68A3
:103598000022009218460321002200230AF032FC80
:1035A8001F482049FDF7CEF9FEF764FF174B1B684B
:1035B800B3F5FA7F02D23B685B423B60154B1B6850
:1035C800B3F5FA7F02D27B685B427B600F4B1868C9
:1035D800104B1968BA68FB68D7F800E07E680A4C97
:1035E80025680B4C2468CDF800E0019602950394F9
:1035F800FEF7F4FE1437BD46F0BD00BFC801002039
:10360800000000000000A0C0D00100202800002019
:10361800D40100202C000020CD010020A438012076
:10362800004800408C470108F0B589B004AFFDF7A9
:1036380037FF0346BB60FDF751FF0346FB60FEF70B
:1036480079FB03463B60FEF799FB03467B60434BDF
:1036580000221A60424B00221A60424B1B68002B62
:103668002DD0414B1B78012B29D03E4B1B685A1E8D
:103678003C4B1A603B4B1B68002B09D0BA68FB68AF
:10368800104619469FED390ADFED380A00F082FD31
:10369800324B1B6803F516731A46354B1A60304BCC
:1036A8001B6803F516731A46324B1A60304B1A68BA
:1036B800304B1B6810461946FDF774FC25E00220C4
:1036C800FDF744FCBA68FB68104619469FED2A0AC4
:1036D800DFED290A00F05EFD234B01221A70BB685A
:1036E800002B12D1FB68002B0FD1244B1B68002242
:1036F800009218460321002200230AF083FB204889
:103708002049FDF71FF9FEF7B5FE194B1A6840F27C
:103718004D239A4202D83B685B423B60154B1A68BE
:1037280040F24D239A4202D87B685B427B60104B83
:103738001868104B1968BA68FB68D7F800E07E680B
:10374800064C2568064C2468CDF800E001960295E1
:103758000394FEF743FE1437BD46F0BDD0010020A8
:10376800D4010020C8010020CD0100200000A041A4
:10377800280000202C00002000000000A4380120B0
:10378800004800408C47010890B583B002AF00F0B4
:103798006DFC2A4B02221A70FDF782FEFDF79EFE91
:1037A800274B4FF416721A60264B4FF416721A60A4
:1037B800254BFA221A60254B1B6818460AF06CFD47
:1037C8000346012B03D1214B1B68002B26D1204B2C
:1037D800009320481421012206230AF0DFFA02464A
:1037E8001A4B1A601C481D49FDF7ACF8174B1B68AB
:1037F80019481946FDF7CAF817481949FDF7A2F8FC
:10380800124B1C6809F0B2FC0346002200922046C5
:1038180000211A4600230AF0F5FA0CE00B4B1C684D
:1038280009F0A4FC034600220092204600211A4613
:1038380000230AF0E7FA0437BD4690BDCD01002009
:10384800280000202C000020C8010020A4380120F6
:10385800313600089847010800480040A44701088D
:1038680088470108F0B589B004AFFDF719FE034693
:10387800BB60FDF733FE0346FB60FEF75BFA0346C9
:103888003B60FEF77BFA03467B60434B00221A60DD
:10389800424B00221A60424B1B68002B2DD0414B33
:1038A8001B78012B29D03E4B1B685A1E3C4B1A60D3
:1038B8003B4B1B68002B09D0BA68FB6810461946B9
:1038C8009FED390ADFED380A00F064FC324B1B68C3
:1038D80003F516731A46354B1A60304B1B6803F50F
:1038E80016731A46324B1A60304B1A68304B1B68F5
:1038F80010461946FDF756FB25E00220FDF726FB8A
:10390800BA68FB68104619469FED2A0ADFED290AB6
:1039180000F040FC234B01221A70BB68002B12D127
:10392800FB68002B0FD1244B1B680022009218461D
:103938000321002200230AF065FA20482049FDF7F8
:1039480001F8FEF797FD194B1A6840F24D239A4289
:1039580002D83B685B423B60154B1A6840F24D2326
:103968009A4202D87B685B427B60104B1868104B08
:103978001968BA68FB68D7F800E07E68064C2568C5
:10398800064C2468CDF800E0019602950394FEF7F2
:1039980025FD1437BD46F0BDD0010020D40100201C
:1039A800C8010020CD010020000070C128000020BF
:1039B8002C00002000000000A4380120004800402E
:1039C8008C47010890B583B002AF00F04FFB2A4B3B
:1039D80002221A70FDF764FDFDF780FD274B4FF4B6
:1039E80016721A60264B4FF416721A60254BFA228B
:1039F8001A60254B1B6818460AF04EFC0346012B3B
:103A080003D1214B1B68002B26D1204B0093204863
:103A18001421012206230AF0C1F902461A4B1A6042
:103A28001C481D49FCF78EFF174B1B68194819469F
:103A3800FCF7ACFF17481949FCF784FF124B1C68C8
:103A480009F094FB034600220092204600211A4602
:103A580000230AF0D7F90CE00B4B1C6809F086FB31
:103A6800034600220092204600211A4600230AF04D
:103A7800C9F90437BD4690BDCD01002028000020BB
:103A88002C000020C8010020A43801206D3800084F
:103A98009847010800480040A447010888470108E2
:103AA800F0B589B004AFFDF7FBFC0346BB60FDF73A
:103AB80015FD0346FB60FEF73DF903463B60FEF744
:103AC8005DF903467B60434B00221A60424B00229B
:103AD8001A60424B1B68002B2DD0414B1B78012BE1
:103AE80029D03E4B1B685A1E3C4B1A603B4B1B6847
:103AF800002B09D0BA68FB68104619469FED390AB1
:103B0800DFED390A00F046FB324B1B6803F51673EC
:103B18001A46364B1A60304B1B6803F516731A4663
:103B2800334B1A60314B1A68314B1B6810461946E3
:103B3800FDF738FA25E00220FDF708FABA68FB68B5
:103B4800104619469FED2B0ADFED2A0A00F022FBEA
:103B5800234B01221A70BB68002B12D1FB68002B83
:103B68000FD1254B1B680022009218460321002222
:103B780000230AF047F921482149FCF7E3FEFEF744
:103B880079FC1A4B1A6840F24D239A4202D83B68D6
:103B98005B423B60164B1A6840F24D239A4202D8AA
:103BA8007B685B427B60114B1868114B1968BA68D7
:103BB800FB68D7F800E07E68064C2568064C246848
:103BC800CDF800E0019602950394FEF707FC143740
:103BD800BD46F0BDD0010020D4010020C80100205E
:103BE800CD0100200000A041000070C12800002085
:103BF8002C00002000000000A438012000480040EC
:103C08008C47010890B583B002AF00F02FFA2A4B19
:103C180002221A70FDF744FCFDF760FC274B4FF4B5
:103C280016721A60264B4FF416721A60254BB4228E
:103C38001A60254B1B6818460AF02EFB0346012B19
:103C480003D1214B1B68002B26D1204B0093204821
:103C58001421012206230AF0A1F802461A4B1A6021
:103C68001C481D49FCF76EFE174B1B68194819467E
:103C7800FCF78CFE17481949FCF764FE124B1C68C8
:103C880009F074FA034600220092204600211A46E1
:103C980000230AF0B7F80CE00B4B1C6809F066FA31
:103CA800034600220092204600211A4600230AF00B
:103CB800A9F80437BD4690BDCD010020280000209A
:103CC8002C000020C8010020A4380120A93A0008CF
:103CD8009847010800480040A447010888470108A0
:103CE800F0B589B004AFFDF7DBFB0346BB60FDF719
:103CF800F5FB0346FB60FEF71DF803463B60FEF745
:103D08003DF803467B60434B00221A60424B002279
:103D18001A60424B1B68002B2DD0414B1B78012B9E
:103D280029D03E4B1B685A1E3C4B1A603B4B1B6804
:103D3800002B09D0BA68FB68104619469FED390A6E
:103D4800DFED390A00F026FA324B1B6803F51673CB
:103D58001A46364B1A60304B1B6803F516731A4621
:103D6800334B1A60314B1A68314B1B6810461946A1
:103D7800FDF718F925E00220FDF7E8F8BA68FB68B6
:103D8800104619469FED2B0ADFED2A0A00F002FAC9
:103D9800234B01221A70BB68002B12D1FB68002B41
:103DA8000FD1254B1B6800220092184603210022E0
:103DB80000230AF027F821482149FCF7C3FDFEF744
:103DC80059FB1A4B1A6840F24D239A4202D83B68B5
:103DD8005B423B60164B1A6840F24D239A4202D868
:103DE8007B685B427B60114B1868114B1968BA6895
:103DF800FB68D7F800E07E68064C2568064C246806
:103E0800CDF800E0019602950394FEF7E7FA14371F
:103E1800BD46F0BDD0010020D4010020C80100201B
:103E2800CD010020000070C10000A0412800002042
:103E38002C00002000000000A438012000480040A9
:103E48008C47010890B583B002AF00F00FF92A4BF8
:103E580002221A70FDF724FBFDF740FB274B4FF4B5
:103E680016721A60264B4FF416721A60254BB4224C
:103E78001A60254B1B6818460AF00EFA0346012BF8
:103E880003D1214B1B68002B26D1204B00932048DF
:103E980014210122062309F081FF02461A4B1A60F9
:103EA8001C481D49FCF74EFD174B1B68194819465D
:103EB800FCF76CFD17481949FCF744FD124B1C68C8
:103EC80009F054F9034600220092204600211A46C0
:103ED800002309F097FF0CE00B4B1C6809F046F92A
:103EE800034600220092204600211A46002309F0CA
:103EF80089FF0437BD4690BDCD0100202800002071
:103F08002C000020C8010020A4380120E93C00084A
:103F18009847010800480040A4470108884701085D
:103F280080B485B000AFF86087ED020AC7ED010ADA
:103F380087ED001AFB68BA681A60FB687A685A60ED
:103F4800FB683A689A60FB684FF00002DA60FB6829
:103F58004FF000021A61FB684FF000025A611437F3
:103F6800BD465DF8047B704780B586B000AFF86049
:103F780087ED020AC7ED010A97ED027AD7ED017ABB
:103F880077EE677AC7ED057AFB68D3ED047A97ED8B
:103F9800057A77EE677AC7ED047AFB6893ED037AC2
:103FA800D7ED057A77EE277AFB68C3ED037AFB68CD
:103FB80093ED007AD7ED057A27EE277AFB68D3EDE3
:103FC800016AFB68D3ED037A66EEA77A37EE277AA3
:103FD800FB68D3ED026AD7ED047A66EEA77A77EE2E
:103FE800277AFB68C3ED057AFB6893ED057ADFED68
:103FF800137AB4EEE77AF1EE10FA03DDFB68104AA3
:104008005A610BE0FB68D3ED057AF5EEC07AF1EE64
:1040180010FA03D5FB684FF000025A61FB687A6911
:104028001A61FB68D3ED057AB0EE670AFDF7C4FFA5
:10403800034618461837BD4680BD00BF0000164429
:104048000000164480B485B000AFF86087ED020A1E
:10405800C7ED010AFB687A681A60FB68BA685A609B
:104068001437BD465DF8047B704700BF80B582B049
:1040780000AF36489FED360ADFED360AFFF7E2FF5C
:1040880035489FED330ADFED350AFFF7DBFF34488B
:104098009FED2F0ADFED330AFFF7D4FF32489FED7B
:1040A8002C0ADFED2C0AFFF7CDFF30489FED280AD8
:1040B800DFED2A0AFFF7C6FF2D489FED250ADFED41
:1040C800290AFFF7BFFF2B4B4FF000021A602A4B5B
:1040D8004FF000021A60294B4FF000021A60284B7B
:1040E8004FF000021A6000237B6021E000233B6050
:1040F80018E024497A6813465B0013443A6813446D
:104108009B000B44204A1A6020497A6813465B00DA
:1041180013443A6813449B000B441B4A1A603B68DB
:1041280001333B603B68022BE3DD7B6801337B6036
:104138007B68022BDADD164B4FF000021A60144B35
:104148004FF000025A600837BD4680BDE4380120B0
:10415800000040400681A540D4380120000000003E
:104168000C3901200681A5C014390120EC38012042
:10417800CC3801202039012008390120F4380120E9
:104188001C390120B8000020CDCC4C3EDC000020BA
:1041980000010020F0B58DB004AFF860B96087ED7C
:1041A800010AC7ED000AFB6807EE903AB8EEE77A15
:1041B800DFEDC17A67EE277AC7ED077ABB6807EEAD
:1041C800903AB8EEE77ADFEDBC7A67EE277AC7ED6A
:1041D800067A97ED017ADFEDB87A67EE277AC7EDB0
:1041E800017A97ED007ADFEDB47A67EE277AC7EDAA
:1041F800007AB24B1A68B24B1A60B24B1A68B24BCB
:104208001A60AF4BD3ED007AB0EE670AD7ED010A1A
:1042180000F0ACF9F0EE407AA84BC3ED007AAA4B57
:10422800D3ED007AB0EE670AD7ED000A00F09EF9E8
:10423800F0EE407AA34BC3ED007AA04B93ED006AF1
:10424800A04BD3ED006A9E4B93ED007A9E4BD3EDC5
:10425800007AB0EE460AF0EE660AB0EE471AF0EEC3
:10426800671A00F0ADF9964B93ED007AD7ED077A0F
:1042780077EE677AC7ED057A934B93ED007AD7ED21
:10428800067A77EE677AC7ED047A97ED050AD7EDD7
:10429800040A00F09FFA97ED050AD7ED040A00F02A
:1042A800F7F98A4B93ED007A894BD3ED007A37EE14
:1042B800277A884BD3ED007A77EE277A864BC3EDC1
:1042C800007A824B93ED017A814BD3ED017A37EE78
:1042D800277A804BD3ED017A77EE277A7E4BC3EDB0
:1042E800017A7D4BD3ED007AF5EEC07AF1EE10FA43
:1042F80014DD794B93ED007A784BD3ED007A27EEF5
:10430800277A774BD3ED007A77EE277AB0EE670AF3
:10431800FDF752FE0246734B1A6027E06E4BD3ED51
:10432800007AF5EE407AF1EE10FA03D16D4B0022D7
:104338001A601BE0684BD3ED007AF5EEC07AF1EE17
:1043480010FA13D5644B93ED007A674BD3ED007ADE
:1043580027EE277A654BD3ED007A77EE277AB0EE11
:10436800670AFDF729FE02465E4B1A605A4BD3EDE9
:10437800017AF5EEC07AF1EE10FA14DD564B93EDA2
:10438800017A5B4BD3ED007A27EE277A594BD3EDB0
:10439800007A77EE277AB0EE670AFDF70DFE02463F
:1043A800554B1A6027E04C4BD3ED017AF5EE407A75
:1043B800F1EE10FA03D1504B00221A601BE0464B75
:1043C800D3ED017AF5EEC07AF1EE10FA13D5424B2F
:1043D80093ED017A494BD3ED007A27EE277A484BC3
:1043E800D3ED007A77EE277AB0EE670AFDF7E4FDA1
:1043F8000246414B1A6097ED057ADFED427A67EE87
:10440800277AFDEEE77A17EE900A97ED047ADFED4A
:104418003D7A67EE277AFDEEE77A17EE901A2B4B76
:1044280093ED007ADFED377A67EE277AFDEEE77ACB
:1044380017EE902A254B93ED017ADFED327A67EE7D
:10444800277AFDEEE77A17EE904A214B93ED007A32
:10445800DFED2C7A67EE277AFDEEE77A17EE90EA21
:104468001B4B93ED017ADFED277A67EE277AFDEE95
:10447800E77A17EE906A174B93ED007ADFED217A11
:1044880067EE277AFDEEE77A17EE905A114B93ED17
:10449800017ADFED1C7A67EE277AFDEEE77A17EEF0
:1044A800903ACDF800E00196029503932346FDF774
:1044B800BBFF2437BD46F0BD3867843EF438012081
:1044C800203901201C390120083901200039012038
:1044D800DC380120F8380120C4380120940000207D
:1044E80098000020D0010020A4000020A80000208F
:1044F8009C000020A0000020D4010020AC00002077
:10450800B000002000401C4680B584B000AF786041
:1045180087ED000A7B68D3ED007A97ED007A77EE95
:10452800677AB0EE670A0220FDF716FE87ED030AE8
:104538007B68D3ED017AB0EE670A0220FDF70CFE26
:10454800F0EE407A97ED037AC7EE277AC7ED037A43
:1045580097ED030AFDF7B2FD87ED030AFB6807EE46
:10456800903AB0EE670A1037BD4680BD80B487B078
:1045780000AF87ED010AC7ED000A0F4B7B610F4BB7
:104588003B6197ED057AD7ED017A27EE277AD7EDCB
:10459800046AD7ED007A66EEA77A77EE277AC7ED38
:1045A800037AFB6807EE903AB0EE670A1C37BD46FF
:1045B8005DF8047B704700BF6666663FCDCCCC3D96
:1045C80080B487B000AF87ED030AC7ED020A87ED14
:1045D800011AC7ED001A2B4B93ED007AD7ED017A3B
:1045E80027EE277A274BD3ED016AD7ED007A66EEDE
:1045F800A77A77EE277A97ED037A77EE677AC7ED91
:10460800047A204B93ED027AD7ED017A27EE277AC8
:104618001C4BD3ED036AD7ED007A66EEA77A77EEE6
:10462800277A97ED027A77EE677AC7ED057A164B07
:1046380093ED007AD7ED047A27EE277A124BD3ED63
:10464800016AD7ED057A66EEA77A77EE277A0F4BDF
:10465800C3ED007A0C4B93ED027AD7ED047A27EE7E
:10466800277A094BD3ED036AD7ED057A66EEA77A68
:1046780077EE277A054BC3ED017A1C37BD465DF806
:10468800047B70476400002084000020F838012073
:1046980080B52DED028B84B000AF87ED010AC7ED20
:1046A800000A464B93ED007AD7ED017A27EE277A78
:1046B800424BD3ED026AD7ED007A66EEA77A77EE21
:1046C800277AC7ED027A3D4B93ED017AD7ED017A4F
:1046D80027EE277A394BD3ED036AD7ED007A66EED9
:1046E800A77A77EE277AC7ED037A354B93ED008AE0
:1046F800D7ED027AB0EE670AFDF7C2FCB0EE407A59
:10470800304BD3ED007A67EE277A78EE277A2C4B78
:10471800C3ED007A2A4B93ED018AD7ED037AB0EE08
:10472800670AFDF7ADFCB0EE407A264BD3ED007A70
:1047380067EE277A78EE277A214BC3ED017A204B72
:1047480093ED007ADFED207AB4EEE77AF1EE10FA15
:1047580002DB1B4B1D4A1A60194B93ED017ADFED02
:104768001A7AB4EEE77AF1EE10FA02DB144B174A24
:104778005A60D7ED027AB0EE670AFDF765FCB0EE35
:10478800407A0F4BD3ED007A67EE277A104BC3EDD2
:10479800007AD7ED037AB0EE670AFDF755FCB0EE64
:1047A800407A074BD3ED017A67EE277A084BC3EDC1
:1047B800017A1037BD46BDEC028B80BD7400002025
:1047C80000010020B40000200000A0400000A0402C
:1047D800DC38012080B5C4B000AF3B1D83ED000A72
:1047E8003B46C3ED000A3B1DB14893ED000AFFF7B5
:1047F8008BFEF0EE407AC7ED3B7A3B1DAD4893ED5A
:10480800000AFFF781FEF0EE407AC7ED3C7A3B1DC7
:10481800A94893ED000AFFF777FEF0EE407AC7ED5E
:104828003D7A3B46A54893ED000AFFF76DFEF0EE92
:10483800407AC7ED387A3B46A14893ED000AFFF766
:1048480063FEF0EE407AC7ED397A3B469D4893ED1A
:10485800000AFFF759FEF0EE407AC7ED3A7A0023D6
:10486800C7F808310023C7F804310023C7F8083116
:1048780049E00023C7F804313CE0D7F808319B0031
:1048880007F588710B44243B93ED007AD7F804317F
:104898009B0007F588721344303BD3ED007A67EE2E
:1048A800277AD7F8082113465B001344D7F8042168
:1048B80013449B0007F588710B44543BC3ED007A01
:1048C800D7F8082113465B001344D7F80421134492
:1048D8009B0007F588721344543BD3ED007A97ED9B
:1048E800437A77EE277AC7ED437AD7F80431013354
:1048F800C7F80431D7F80431022BBEDDD7F80831E8
:104908000133C7F80831D7F80831022BB1DD00238D
:10491800C7F800310023C7F8083130E00023C7F892
:10492800043123E0D7F80021531CC7F80031D7F829
:1049380008110B465B000B44D7F804110B449B008D
:1049480007F588710B44543B93ED007AD7ED437A11
:10495800C7EE277A930007F588721344783BC3EDB6
:10496800007AD7F804310133C7F80431D7F8043195
:10497800022BD7DDD7F808310133C7F80831D7F84B
:104988000831022BCADD0023C7F800317FE0D7F8D1
:1049980000319B0007F588710B44783B93ED007A52
:1049A8003B1DD3ED007A67EE277AD7F800319B00DC
:1049B80007F5887213449C3BC3ED007AD7F80031A1
:1049C8009B0007F588710B44783B93ED007A3B46D2
:1049D800D3ED007A67EE277AD7F800319B0007F508
:1049E80088721344C03BC3ED007AD7F800319B00AE
:1049F80007F588710B449C3B93ED007A324BD3ED5D
:104A0800007A27EE277AD7F800319B0007F58872DD
:104A18001344C03BD3ED006A2B4BD3ED027A66EE0C
:104A2800A77A77EE277AD7F800319B0007F58871C7
:104A38000B44E43BC3ED007AD7F800319B0007F53F
:104A4800887213449C3B93ED007A1F4BD3ED017A97
:104A580027EE277AD7F800319B0007F588710B44B9
:104A6800C03BD3ED006A184BD3ED037A66EEA77A04
:104A780077EE277A07F10802D7F800319B00134434
:104A8800C3ED007AD7F800310133C7F80031D7F801
:104A98000031082B7FF77BAF0023C7F800310023D4
:104AA800C7F8083178E00023C7F804316BE000BF8D
:104AB800E4380120D43801200C39012014390120B0
:104AC800EC380120CC380120740000206D49D7F85B
:104AD800082113465B001344D7F8042113449B00B4
:104AE8000B4493ED007AD7F800319B0007F58872E4
:104AF8001344E43BD3ED006A634BD3ED007A66EED2
:104B0800A77A77EE277A5F49D7F8082113465B0022
:104B18001344D7F8042113449B000B44C3ED007AD7
:104B28005A49D7F8082113465B001344D7F80421E3
:104B380013449B000B4493ED007A07F10802D7F861
:104B480000319B001344D3ED006A4F4BD3ED007A3C
:104B580066EEA77A77EE277A4C49D7F808211346EC
:104B68005B001344D7F8042113449B000B44C3EDA6
:104B7800007AD7F800310133C7F80031D7F804318B
:104B88000133C7F80431D7F80431022B9EDDD7F87A
:104B980008310133C7F80831D7F80831022B82DD14
:104BA8000023C7F800314FF00003C7F8FC304FF07E
:104BB8000003C7F8F8300023C7F8083152E0002393
:104BC800C7F8043145E0D7F800319B0007F5887134
:104BD8000B44783B93ED007A2A49D7F8082113460D
:104BE8005B001344D7F8042113449B000B44D3ED16
:104BF800007A67EE277A97ED3F7A77EE277AC7ED46
:104C08003F7AD7F800319B0007F588721344783B48
:104C180093ED007A1D49D7F8082113465B00134429
:104C2800D7F8042113449B000B44D3ED007A67EEB8
:104C3800277A97ED3E7A77EE277AC7ED3E7AD7F84E
:104C480000310133C7F80031D7F804310133C7F810
:104C58000431D7F80431022BB5DDD7F80831013318
:104C6800C7F80831D7F80831022BA8DD084BD7F868
:104C7800FC201A60064BD7F8F8205A6007F58877A9
:104C8800BD4680BDB8000020B4000020DC00002034
:104C98000039012080B582B000AF0023FB710020ED
:104CA8004FF4806102F0C0F80346FB71FB79002BDA
:104CB80004D0FB79214819460EF03EFCFB79002B05
:104CC80025D11F480EF038FC1E4800214FF4007211
:104CD800022301F053FC0346FB71FB79002B02D041
:104CE80019480EF029FC01F077FD0346FB71FB79AA
:104CF800002B03D015480EF01FFCFFE700BF00F0A3
:104D080079FD0346002BFAD111480EF015FCFB790A
:104D1800002B08D10B484FF4806100F05BF9034683
:104D28001A460C4B1A700B4B1B78DBB2012B02D1C5
:104D380009480EF001FC0837BD4680BDAC470108A4
:104D4800C4470108243F0120F4470108104801081E
:104D580030480108D80100204448010880B582B0D5
:104D680000AF34484FF4007143F20F2200F0EEF820
:104D7800304800214FF4007201F08AFD0346FB71B0
:104D8800FB79002B04D0FB792B4819460EF0D4FB95
:104D980001F0B8FF0346FB71FB79002B05D0FB79C6
:104DA800264819460EF0C8FBFFE700BF00F022FDB9
:104DB8000346002BFAD1FB79002B22D12048002191
:104DC8004FF4007201F04AFB0346FB71FB79002B9C
:104DD80004D0FB791B4819460EF0AEFB01F0FCFC31
:104DE8000346FB71FB79002B05D0FB791648194661
:104DF8000EF0A2FBFFE700BF00F0FCFC0346002B0F
:104E0800FAD1FB79002B09D10A480D494FF40072F9
:104E180000F0BEF803461A460C4B1A700B4B1B7871
:104E2800DBB2012B02D10A480EF086FB0837BD46DB
:104E380080BD00BF244301205C4801087848010870
:104E4800243D012094480108B0480108D9010020F8
:104E5800CC48010880B582B000AF34484FF4806177
:104E6800002200F073F8314800214FF40072022349
:104E780001F072FE0346FB71FB79002B04D0FB792D
:104E88002B4819460EF058FB01F03CFF0346FB7116
:104E9800FB79002B05D0FB79264819460EF04CFB10
:104EA800FFE700BF00F0A6FC0346002BFAD1FB7910
:104EB800002B23D1204800214FF40072022301F077
:104EC800F3FB0346FB71FB79002B04D0FB791B48ED
:104ED80019460EF031FB01F07FFC0346FB71FB79AC
:104EE800002B05D0FB79164819460EF025FBFFE785
:104EF80000BF00F07FFC0346002BFAD1FB79002BA2
:104F080009D10A480C494FF4806200F041F8034681
:104F18001A460C4B1A700B4B1B78DBB2012B02D1D3
:104F280009480EF009FB0837BD4680BD2439012029
:104F3800EC48010878480108243F01200849010885
:104F4800B0480108DA0100202449010880B487B07C
:104F580000AFF860B9607A600023FB820023FB820F
:104F68000CE0FB8AFA681344FA8AD1B27A68D2B2A2
:104F78000A44D2B21A70FB8A0133FB82FA8ABB68F0
:104F88009A42EED31C37BD465DF8047B704700BFDC
:104F980080B485B000AFF860B9607A600DE0FB6856
:104FA8001A78BB681B789A4201D000230BE0FB6893
:104FB8000133FB60BB680133BB607B685A1E7A60B3
:104FC800002BECD1012318461437BD465DF8047B4D
:104FD800704700BF80B483B000AF786039600CE0E0
:104FE8007B681B78FF2B05D07B681B78002B01D0D2
:104FF800002308E07B6801337B603B685A1E3A60F7
:10500800002BEDD1012318460C37BD465DF8047B13
:10501800704700BF80B582B000AF00F075F800F0AF
:105028008FFB0346FB712D480EF086FAFB79002BA7
:1050380003D12B480EF080FA07E02A480EF07CFADC
:10504800FB79294819460EF077FA284B93F8563021
:10505800274819460EF070FA244BD3E91223254845
:105068000EF06AFA214B1B6D234819460EF064FABC
:105078001E4B93F82C30DBB2204819460EF05CFA30
:105088001A4BB3F854301E4819460EF055FA1AE078
:105098001C4B1B68012B04D0012B08D3022B0CD00E
:1050A80011E0FFF75BFE174B00221A600BE0FFF7D9
:1050B800F1FD144B02221A6005E0FFF7CBFE114BFD
:1050C80003221A6000BFFB79002B03D10D4B1B682C
:1050D800032BDDD10837BD4680BD00BF4849010814
:1050E80060490108744901088449010840450120C4
:1050F80094490108A4490108B8490108CC490108A4
:10510800E04901080801002080B582B000AF4FF4E3
:10511800407009F009FB31233B7100237B710023A8
:10512800BB710123FB713B1D184609F00FFB3B23A4
:105138003B7101237B713B1D184609F007FB0837BB
:10514800BD4680BD80B500AF02F084F880BD00BFC9
:1051580080B500AF02F0E2F880BD00BF80B584B032
:1051680000AF3B4618460BF0EFFB3B680A48194670
:105178000EF0E2F97B68094819460EF0DDF9BB68C4
:10518800074819460EF0D8F9FB68064819460EF08C
:10519800D3F91037BD4680BDEC490108FC49010828
:1051A800084A0108184A010880B586B000AF78603F
:1051B800396000237B6100233B610023FB813B684E
:1051C8001B787B7300237B6146E00A200EF0CCF944
:1051D8007B691A017B681344224819460EF0ACF922
:1051E80000233B610EE0FB895A1CFA813A6813449C
:1051F8001B787B737B7B1C4819460EF09DF93B6935
:1052080001333B613B690F2BEDD918480EF094F937
:10521800FB89103BFB8100233B6114E0FB895A1C8E
:10522800FA813A6813441B787B737B7B202B04D963
:105238007B7B18460EF098F902E02E200EF094F9C8
:105248003B6901333B613B690F2BE7D908480EF0F6
:1052580073F97B6901337B617B691F2BB5D91837DB
:10526800BD4680BD284A0108344A01083C4A010865
:10527800404A010880B5ADF5047D00AF3B1D1860BC
:105288000023C7F80C322EE007F108031846D7F8B8
:105298000C124FF40072012301F070F9034687F8ED
:1052A8000B3297F80B32002B05D097F80B321846C3
:1052B80000F026F8FFE700BF00F09CFA0346002B39
:1052C800FAD1D7F80C325A0207F1080310461946EA
:1052D800FFF76AFFD7F80C325A1CC7F80C220748A8
:1052E80019460EF029F93B1D1B683A1D591E11601D
:1052F800002BC9D107F50477BD4680BD444A010893
:1053080080B5ACB000AF0346FB710D4B07F1080147
:105318001A46A823084611461A460EF0FCF8FA79F0
:10532800FB799B0007F1B0010B4453F8A83C0548F2
:1053380011461A460EF000F9B037BD4680BD00BFD1
:10534800C44D0108544A0108B0B58CB000AF0346FB
:10535800FB71124B07F10C041D460FCD0FC40FCD86
:105368000FC42B682360FB79072B0DD8FA79FB79DA
:105378009B0007F130010B4453F8243C08481146C0
:105388001A460EF0D9F806E0FA79FB6A0448114685
:105398001A460EF0D1F83037BD46B0BD304F01087F
:1053A8006C4E0108F0B58BB000AF5E4B3E1D9E46BB
:1053B800BEE80F000FC69EE80F0086E80F005A48A7
:1053C8000EF0BAF8594800F045FC034687F8273034
:1053D80097F82730002B0AD055480EF0ADF897F80B
:1053E80027301846FFF78CFF97F8273095E097F895
:1053F8002730002B40F0908000F014FA034618463E
:10540800FFF7A2FF494B1B6D4A4819460EF094F866
:10541800464BD3E9122348480EF08EF8434BD3E9A4
:105428001223140D44EA03341D0D2346434819463C
:105438000EF082F83D4B93F856309B0007F1280296
:10544800134453F8243C3E4819460EF075F8374B80
:10545800B3F854303B4819460EF06EF8334B5B797D
:10546800DBB2394819460EF067F8304B1B693748EC
:1054780019460EF061F82D4B1B7EDBB234481946F5
:105488000EF05AF8294B1B7ADBB2324819460EF057
:1054980053F8264BDB7FDBB22F4819460EF04CF849
:1054A8002E480EF049F8214B93F82C30DBB22C48EB
:1054B80019460EF041F81D4B1B6B2A4819460EF091
:1054C8003BF81A4B93F83430DBB2274819460EF0F4
:1054D80033F8164B93F83530DBB2244819460EF0F2
:1054E8002BF8124B9B6B224819460EF025F80F4BF0
:1054F800DB8F9BB21F4819460EF01EF80B4B93F832
:105508004030DBB21C4819460EF016F800F08AF954
:1055180003461846FFF718FF002318462C37BD46E8
:10552800F0BD00BFC4510108544F01084045012097
:10553800644F0108944F0108A84F0108C04F0108A3
:10554800CC4F0108D84F0108E44F0108005001086A
:1055580018500108345001084C50010868500108DF
:1055680070500108885001089C500108B05001088B
:10557800C0500108D0500108E850010880B586B035
:1055880000AF2C480DF0D8FF3B1D184600F03AFE3E
:105598000346FB75FB7D002B08D027480DF0CCFF98
:1055A800FB7D1846FFF7ACFEFB7D3EE0FB7D002B44
:1055B8003AD13B79DBB2214819460DF0BDFF7B7922
:1055C800DBB21F4819460DF0B7FFFB889BB21D4898
:1055D80019460DF0B1FFBB681B4819460DF0ACFF2A
:1055E8003B7BDBB2194819460DF0A6FF7B7BDBB28B
:1055F800174819460DF0A0FFBB7BDBB215481946CA
:105608000DF09AFF3B8A9BB2134819460DF094FFA0
:10561800BB7CDBB2114819460DF08EFFFB7CDBB278
:105628000F4819460DF088FF002318461837BD4665
:1056380080BD00BFE4510108F45101082852010857
:10564800405201085852010870520108905201084E
:10565800A4520108C0520108D0520108E4520108BE
:10566800FC52010880B582B000AF26480DF064FFF7
:10567800FFF774FD244B1B68244819460DF05CFFA6
:10568800214B1A68224BA3FB02139B092148194698
:105698000DF052FF1C4B1B689B081F4819460DF064
:1056A8004BFF1E480DF048FF00F04AF80346FB7117
:1056B800FB79002B06D01A480DF03EFFFB791846FF
:1056C800FFF71EFEFFF76EFEFFF758FF15480DF0B7
:1056D80033FF154800F0BEFA0346FB71FB79002B37
:1056E80006D012480DF028FFFB791846FFF708FE90
:1056F8000D4B1B690E4819460DF01EFF0837BD46B5
:1057080080BD00BF145301080C0100202C53010870
:105718008988888864530108A0530108E453010864
:10572800F45301082054010840450120644F010842
:105738003C54010880B500AF02F0CCFA80BD00BF30
:1057480080B582B000AF0023FB7102F013FB0AF0B2
:1057580071FA00F095F80346FB71FB79DBB2002B78
:1057680002D0FB79DBB23DE000F0AEF90346FB71F5
:10577800FB79DBB2002B02D0FB79DBB232E01B4BAA
:1057880002221A75194B00221A60184B00225A601F
:10579800164B00229A60154B0022DA60134B002248
:1057A8001A6112480AF054FA114800F053FA0346F5
:1057B800FB71FB79DBB2002B08D10D4BB3F85430E9
:1057C8001B04184600F024FE0346FB71FB79DBB28C
:1057D800002B05D14FF4006000F0AEFD0346FB71CD
:1057E800FB79DBB218460837BD4680BD98450120D5
:1057F8004045012080B582B000AF0423FB7100F062
:1058080011F80346FB71FB79042B01D1002305E055
:10581800FB79FF2B01D1022300E00123184608374A
:10582800BD4680BD80B582B000AF00237B6000F02C
:1058380019F80346012B0FD13B1D184601F0C8FB90
:105848000346002B01D0FF2307E07B685B0ADBB22D
:1058580003F00F03DBB200E0FF2318460837BD460C
:1058680080BD00BF80B483B000AF0123FB71FB791A
:10587800DBB218460C37BD465DF8047B704700BFA5
:1058880080B586B000AF0023FB7100237B61002345
:105898003B610023FB600023BB60814B76221A75B5
:1058A8007F4B00221A607E4B00225A607C4B0022FC
:1058B8009A607B4B0022DA60794B00221A617848A3
:1058C8000AF0C6F903200AF01DFA01200AF00AFAC4
:1058D800744B00221A60734B00225A60714B0022ED
:1058E8009A60704B0022DA606E4B4FF480621A6146
:1058F8006C480AF023FA01F029FD0346FB71FB7995
:10590800DBB2002B02D0FB79DBB2C5E0654B4FF46C
:10591800D5721A60634B08225A60624B40229A6023
:10592800604B0022DA605F4B4FF480621A615D4879
:105938000AF004FA01F030FD0346FB71FB79DBB293
:10594800002B06D1584B01221A604FF08043BB60F0
:1059580017E0544B00221A60524B37225A60514BC1
:1059680040229A604F4B0022DA604E4B4FF480621F
:105978001A614C480AF0E2F9372001F049FD034664
:10598800FB71484B00221A60464B37225A60454B40
:1059980040229A60434B0022DA60424B4FF4806207
:1059A8001A6140480AF0CAF9372001F031FD034670
:1059B800FB71FB79DBB2002B6CD14FE0394B002235
:1059C8001A60384B37225A60364B40229A60354B62
:1059D8000022DA60334B4FF480621A6131480AF0D2
:1059E800ADF9372001F014FD0346FB71FB79DBB2FA
:1059F800002B02D0FB79DBB24EE0BB6843F00043DA
:105A080043F48013274A1360264B29225A60254BFA
:105A180040229A60234B0022DA60224B4FF48062C6
:105A28001A6120480AF08AF901F0C2FD0346FB71A9
:105A3800FB79DBB2002B02D0FB79DBB22CE0002033
:105A48000AF0CCF978617B69DB0F012B14BF0023C6
:105A58000123DBB2FB603B6901333B61FB68002B30
:105A680004D13A694FF6FE739A42A7D93A694FF6BC
:105A7800FE739A4204D91B23FB71FB79DBB20BE05E
:105A88007B6903F080437B617B69002B02D0064B66
:105A980002221A60FB79DBB218461837BD4680BD72
:105AA8009845012028450120DC01002080B582B0FE
:105AB80000AF0023FB7100200AF024F9FB79184697
:105AC8000837BD4680BD00BF80B582B000AF002357
