:020000040800F2
:1000000000000220F97B010889010008457C0108F5
:10001000E9010008F1010008F901000800000000F2
:10002000000000000000000000000000F1ED0008EA
:100030000102000800000000E9EF000839F00008A4
:10004000457C0108457C0108457C0108457C010888
:10005000457C0108457C010879190008B919000898
:10006000F9190008391A0008457C0108457C010887
:10007000457C0108457C0108457C0108457C010858
:10008000457C0108457C0108457C0108457C010848
:10009000457C0108457C0108457C0108457C010838
:1000A000457C0108457C0108457C0108457C010828
:1000B000457C0108457C0108457C0108457C010818
:1000C000457C0108457C0108457C0108457C010808
:1000D000457C0108457C0108457C0108BD0A0008F3
:1000E000457C0108457C0108457C0108457C0108E8
:1000F000457C0108457C0108457C0108457C0108D8
:10010000457C01088D6C0008457C0108457C010890
:10011000457C0108457C0108457C0108457C0108B7
:10012000457C0108457C0108457C0108996C000864
:10013000457C0108457C0108457C0108457C010897
:10014000457C0108457C0108457C0108457C010887
:10015000457C0108457C0108457C0108457C010877
:10016000457C0108457C0108457C0108457C010867
:10017000457C0108457C0108457C0108457C010857
:08018000457C0108457C0108E3
:1001880080B400AFBD4680BC704700BF80B48BB060
:1001980000AF78607B681B687B627B685B683B624A
:1001A8007B689B68FB617B68DB68BB617B681B695C
:1001B8007B617B685B693B617B689B69FB607B68F3
:1001C800DB69BB60FEE700BF1EF0040F0CBFEFF356
:1001D8000880EFF309808169004A104795010008FB
:1001E80080B400AFFEE700BF80B400AFFEE700BFF9
:1001F80080B400AFFEE700BF80B400AFBD4680BC4E
:10020800704700BF80B500AF4FF46053C4F20203DB
:100218004FF46052C4F20202126842F001021A60FE
:100228004FF46053C4F202034FF000029A604FF497
:100238006053C4F202034FF46052C4F2020212681F
:1002480022F0847222F480321A604FF46053C4F2B0
:10025800020343F21002C2F200425A604FF46053A4
:10026800C4F202034FF46052C4F20202126822F48C
:1002780080221A604FF46053C4F202034FF0000268
:10028800DA6000F0CFF84FF46D43CEF200034FF080
:1002980000629A604FF46D43CEF200034FF46D4252
:1002A800CEF20002D2F8882042F47002C3F8882007
:1002B80080BD00BF80B487B000AF4FF000033B6142
:1002C8004FF000037B614FF00203FB604FF0000327
:1002D800BB604FF002037B604FF46053C4F202032B
:1002E8009B6803F00C033B613B69042B0DD0082B82
:1002F80015D0002B69D140F20003C2F200034FF47D
:100308001052C0F2F4021A6069E040F20003C2F22F
:1003180000034FF49052C0F27A021A605FE04FF483
:100328006053C4F202035B6803F480034FEA9353FB
:10033800BB604FF46053C4F202035B6803F03F03F1
:100348007B60BB68002B14D04FF49053C0F27A0343
:100358007A68B3FBF2F24FF46053C4F202035968AF
:1003680047F6C0730B404FEA931303FB02F37B611C
:1003780013E04FF41053C0F2F4037A68B3FBF2F2BF
:100388004FF46053C4F20203596847F6C0730B4038
:100398004FEA931303FB02F37B614FF46053C4F2FB
:1003A80002035B6803F440334FEA134303F101038C
:1003B8004FEA4303FB607A69FB68B2FBF3F240F251
:1003C8000003C2F200031A6009E040F20003C2F21F
:1003D80000034FF41052C0F2F4021A6000BF4FF449
:1003E8006053C4F202039B6803F0F0034FEA131250
:1003F80040F20403C2F200039B5CDBB23B6140F2B3
:100408000003C2F200031A683B6922FA03F240F2C1
:100418000003C2F200031A6007F11C07BD4680BC46
:10042800704700BF80B483B000AF4FF000037B601B
:100438004FF000033B604FF46053C4F202034FF4E3
:100448006052C4F20202126842F480321A604FF419
:100458006053C4F202031B6803F400333B607B68FB
:1004680003F101037B603B68002B03D17B68B3F584
:10047800A06FECD14FF46053C4F202031B6803F47D
:100488000033002B03D04FF001033B6002E04FF034
:1004980000033B603B68012B40F082804FF46053BF
:1004A800C4F202034FF46052C4F20202126C42F02A
:1004B80080521A644FF4E043C4F200034FF4E04260
:1004C800C4F20002126842F480421A604FF460538A
:1004D800C4F202034FF46052C4F2020292689A60B6
:1004E8004FF46053C4F202034FF46052C4F20202A4
:1004F800926842F400429A604FF46053C4F20203D7
:100508004FF46052C4F20202926842F4A0529A6018
:100518004FF46053C4F2020345F20842C0F240723D
:100528005A604FF46053C4F202034FF46052C4F2AD
:100538000202126842F080721A6000BF4FF46053E2
:10054800C4F202031B6803F00073002BF6D04FF4CB
:100558007053C4F2020340F205621A604FF460530C
:10056800C4F202034FF46052C4F20202926822F00D
:1005780003029A604FF46053C4F202034FF46052CE
:10058800C4F20202926842F002029A6000BF4FF47D
:100598006053C4F202039B6803F00C03082BF6D1E6
:1005A8004FF46053C4F202034FF46052C4F20202E3
:1005B800926822F400029A604FF46053C4F2020376
:1005C8004FF44052C5F20002C3F884204FF4605340
:1005D800C4F202034FF46052C4F20202126842F0FD
:1005E80080621A6000BF4FF46053C4F202031B68B4
:1005F80003F00063002BF6D007F10C07BD4680BC62
:10060800704700BF80B500AF4FF44060C4F20200ED
:100618004FF4805113F0D6FF4FF4FA600FF05AFEF2
:100628004FF44060C4F202004FF4805113F0D8FF39
:100638004FF4FA600FF04EFEE6E700BF80B584B0D5
:1006480000AF78604FF03C03FB604FF03C03BB60A9
:100658004FF44060C4F202004FF4005113F0B2FFAF
:100668004FF47A700FF036FEFB6803F10503FB6068
:10067800BB6803F10503BB604FF44060C4F202009D
:100688004FF4005113F0ACFF4FF47A700FF022FED4
:10069800DEE700BF80B500AF4FF4165000F088F9D0
:1006A8004FF49040C4F2000048F6B821C0F60101AA
:1006B80000F0CEFA4FF49040C4F2000048F6C8218A
:1006C800C0F6010100F0C4FA00F09EFF01F056FCEC
:1006D8004FF49040C4F2000048F6DC21C0F6010156
:1006E80000F0B6FA01F09AF802F052F902F06EFA48
:1006F8004FF49040C4F2000048F6F021C0F6010122
:1007080000F0A6FA02F094FB4FF49040C4F2000007
:1007180048F60431C0F6010100F09AFA80BD00BF26
:1007280080B584B004AF4FF4407011F085FEFFF738
:10073800B1FF4FF0010300934FF0000301934FF016
:10074800000302934FF00003039340F24560C0F6A4
:10075800000048F61031C0F601014FF082024FF058
:1007680000030FF01FFC4FF0020300934FF000034B
:1007780001934FF0000302934FF00003039340F2FC
:100788000D60C0F6000048F61C31C0F601014FF0BC
:1007980082024FF000030FF005FC0FF0EFFFFEE7B9
:1007A80080B400AFBD4680BC704700BF80B500AFC5
:1007B8000EF008FCFEE700BF80B400AFBD4680BC69
:1007C800704700BF80B582B000AF786039600EF026
:1007D800F9FBFEE780B485B000AFF860B9607A60D5
:1007E8004FF0FF33184607F11407BD4680BC704729
:1007F80080B584B000AFF860B9607A6017F020FA6D
:1008080003464FF016021A604FF0FF33184607F1FF
:100818001007BD4680BD00BF80B485B000AFF8604A
:10082800B9607A604FF00003184607F11407BD4617
:1008380080BC704780B586B000AFF860B9607A6058
:10084800BB68002B02D14FF0000322E04FF00003F9
:100858007B6119E000BF4FF49043C4F200031B888A
:100868009BB203F04003002BF5D07B69BA68D3181C
:100878001B784FF49040C4F20000194616F006FFAA
:100888007B6903F101037B617A697B689A42E1DB4A
:100898007B68184607F11807BD4680BD80B483B051
:1008A80000AF78604FF00003184607F10C07BD460B
:1008B80080BC704780B584B000AF786040F2981370
:1008C800C2F200031B68002B08D140F29813C2F251
:1008D800000344F21462C2F201021A6040F2981353
:1008E800C2F200031B68FB6040F29813C2F20003D7
:1008F8001A687B68D2186B469A4208D917F0A0F993
:1009080003464FF00C021A604FF0FF330CE040F240
:100918009813C2F200031A687B68D21840F2981341
:10092800C2F200031A60FB68184607F11007BD46BB
:1009380080BD00BF80B582B000AF7860396038688C
:100948004FF000014FF03C0217F098F93B684FF464
:1009580000525A604FF00003184607F10807BD46D9
:1009680080BD00BF80B483B000AF78604FF0010352
:10097800184607F10C07BD4680BC704780B582B0A9
:1009880000AF7860396017F05BF903464FF0160244
:100998001A604FF0FF33184607F10807BD4680BDBF
:1009A80080B400AF4FF001031846BD4680BC7047C5
:1009B80080B58AB000AF78604FF480204FF0010115
:1009C80014F0BCFA4FF002004FF0010114F038FAAD
:1009D8004FF440633B624FF0020387F824304FF036
:1009E800020387F825304FF0000387F826304FF0D0
:1009F800010387F8273007F120034FF48060C4F221
:100A08000200194613F0A4FC4FF48060C4F20200FF
:100A18004FF00A014FF0070213F028FE4FF48060F0
:100A2800C4F202004FF00B014FF0070213F01EFE54
:100A38007B683B614FF00003BB824FF00003FB82F1
:100A48004FF000033B834FF00003BB834FF00C03D0
:100A58007B8307F110034FF49040C4F2000019465D
:100A680016F058FC4FF49040C4F2000040F22551B3
:100A78004FF0010216F0B4FF4FF027033B734FF01D
:100A880000037B734FF00003BB734FF00103FB734C
:100A980007F10C03184611F0E3FC4FF49040C4F240
:100AA80000004FF0010116F071FD07F12807BD465F
:100AB80080BD00BF80B582B000AF4FF49040C4F253
:100AC800000040F2255117F00FF80346002B00F004
:100AD800BA804FF44060C4F202004FF4804113F032
:100AE800B3FD4FF49040C4F2000016F0E3FD034656
:100AF800DAB242F68873C2F201031A7040F2B413F4
:100B0800C2F200031B780F2B57D840F2B413C2F27D
:100B180000031B781A4642F68873C2F2010319785B
:100B280042F68C73C2F20103995442F68873C2F2FA
:100B380001031B78302B07D14FF44060C4F2020048
:100B48004FF4004113F080FD40F2B413C2F20003E9
:100B58001B781A4642F68C73C2F201039B5CDBB227
:100B68000D2B0DD040F2B413C2F200031B781A46C5
:100B780042F68C73C2F201039B5CDBB2642B0ED18C
:100B880040F29C13C2F200034FF001021A7040F2C7
:100B9800B413C2F200034FF000021A701BE040F2D7
:100BA800B413C2F200031B7803F10103DAB240F276
:100BB800B413C2F200031A700DE040F29C13C2F2A3
:100BC80000034FF001021A7040F2B413C2F200039E
:100BD8004FF000021A7040F29C13C2F200031B7817
:100BE800002B30D04FF49040C4F2000042F68C71D4
:100BF800C2F2010100F02CF84FF49040C4F200005A
:100C080048F62831C0F6010100F022F800F05CF93E
:100C180040F29C13C2F200034FF000021A704FF02A
:100C280000037B600CE042F68C73C2F201037A6821
:100C38009B184FF000021A707B6803F101037B6078
:100C48007B680F2BEFDD07F10807BD4680BD00BFAD
:100C580080B582B000AF7860396018E000BF4FF40B
:100C68009040C4F200004FF0800116F00BFF0346DD
:100C7800002BF4D03B681B78DBB27868194616F075
:100C880005FD3B681B783B6803F101033B603B684B
:100C98001B78DBB2002BE1D107F10807BD4680BD08
:100CA80080B58AB000AF786039603B68002B5DD1B1
:100CB80040F2AC13C2F200031B781A4607F1280071
:100CC80082184FF0300102F8141C03F10103DAB264
:100CD80040F2AC13C2F200031A7047E039684CF6D0
:100CE800CD43CCF6CC43A3FB01234FEAD3021346F2
:100CF8004FEA83039B184FEA4303CA1A40F2B01322
:100D0800C2F200031A6040F2B013C2F200031B687B
:100D18003A68D31A3B603A684CF6CD43CCF6CC43DC
:100D2800A3FB02034FEAD3033B6040F2AC13C2F2C9
:100D380000031B78194640F2B013C2F200031B6887
:100D4800DBB203F13003DAB207F12800431803F8E5
:100D5800142C40F2AC13C2F200031B7803F1010318
:100D6800DAB240F2AC13C2F200031A703B68002BEF
:100D7800B4D14FF000037B6220E040F2AC13C2F222
:100D880000031B7803F1FF33DAB240F2AC13C2F26E
:100D980000031A7040F2AC13C2F200031B7807F18B
:100DA8002801CB1813F8143CDAB207F108017B6A62
:100DB800CB181A707B6A03F101037B6240F2AC1313
:100DC800C2F200031B78002BD7D107F108027B6A17
:100DD800D3184FF000021A7007F108034FF490403F
:100DE800C4F200001946FFF733FF40F2AC13C2F219
:100DF80000034FF000021A704FF000033B6211E04D
:100E080007F114023B6AD3184FF000021A7007F179
:100E180008023B6AD3184FF000021A703B6A03F1CC
:100E280001033B623B6A092BEADD07F12807BD464F
:100E380080BD00BF80B582B000AF0346FB7100BF24
:100E480040F2A013C2F200031B6818464FF00001DD
:100E58004FF0FF324FF000030EF0CEFC0346002B9C
:100E6800EED0FB799BB24FF49040C4F200001946D3
:100E780016F00CFC4FF49040C4F2000040F22771C9
:100E88004FF0010216F0ACFD07F10807BD4680BD22
:100E980080B582B000AF00BF40F2A413C2F20003D5
:100EA8001A6807F10403104619464FF0FF324FF055
:100EB80000030EF0A1FC0346002BEDD03B79184649
:100EC80007F10807BD4680BD80B582B000AF40F28B
:100ED8009C13C2F200031B78002B00F0F38242F649
:100EE8008C73C2F201031B78DBB22B2B64D140F266
:100EF8002803C2F200031A6840F22403C2F2000376
:100F08001B68D21840F22803C2F200031A6040F2AC
:100F18002C03C2F200031A6840F22403C2F2000351
:100F28001B68D21840F22C03C2F200031A6040F288
:100F38002803C2F200031A6840F22C03C2F200032D
:100F48001B681046194600F047FB4FF49040C4F266
:100F5800000048F62C31C0F60101FFF779FE40F297
:100F68002803C2F200031B684FF49040C4F200004B
:100F78001946FFF795FE4FF49040C4F2000048F67A
:100F88003431C0F60101FFF763FE40F22C03C2F2D0
:100F980000031B684FF49040C4F200001946FFF7A5
:100FA8007FFE4FF49040C4F2000048F63C31C0F692
:100FB8000101FFF74DFE85E242F68C73C2F2010390
:100FC8001B78DBB22D2B64D140F22803C2F2000358
:100FD8001A6840F22403C2F200031B68D21A40F2D6
:100FE8002803C2F200031A6040F22C03C2F2000385
:100FF8001A6840F22403C2F200031B68D21A40F2B6
:101008002C03C2F200031A6040F22803C2F2000364
:101018001A6840F22C03C2F200031B6810461946F6
:1010280000F0DAFA4FF49040C4F2000048F62C3190
:10103800C0F60101FFF70CFE40F22803C2F20003DC
:101048001B684FF49040C4F200001946FFF728FED1
:101058004FF49040C4F2000048F63431C0F6010164
:10106800FFF7F6FD40F22C03C2F200031B684FF4B1
:101078009040C4F200001946FFF712FE4FF490406A
:10108800C4F2000048F63C31C0F60101FFF7E0FD6C
:1010980018E242F68C73C2F201031B78DBB2652BAF
:1010A80002D100F049FE0DE242F68C73C2F2010350
:1010B8001B78DBB26E2B18D14FF49040C4F20000BD
:1010C80048F64031C0F60101FFF7C2FD4FF00100BC
:1010D80000F08CFF4FF49040C4F2000048F63C3119
:1010E800C0F60101FFF7B4FDECE142F68C73C2F2E1
:1010F80001031B78DBB2642B18D14FF49040C4F283
:10110800000048F64C31C0F60101FFF7A1FD4FF091
:10111800020000F06BFF4FF49040C4F2000048F664
:101128003C31C0F60101FFF793FDCBE142F68C7329
:10113800C2F201031B78DBB2612B18D14FF4904047
:10114800C4F2000048F65831C0F60101FFF780FDEF
:101158004FF0000000F04AFF4FF49040C4F2000046
:1011680048F63C31C0F60101FFF772FDAAE142F6EC
:101178008C73C2F201031B78DBB2752B18D14FF4C4
:101188009040C4F2000048F66431C0F60101FFF750
:101198005FFD4FF0010000F0B5FF4FF49040C4F23E
:1011A800000048F63C31C0F60101FFF751FD89E126
:1011B80042F68C73C2F201031B78DBB26B2B18D199
:1011C8004FF49040C4F2000048F67031C0F60101B7
:1011D800FFF73EFD4FF0020000F094FF4FF49040FF
:1011E800C4F2000048F63C31C0F60101FFF730FDBB
:1011F80068E142F68C73C2F201031B78DBB2772BED
:1012080018D14FF49040C4F2000048F67C31C0F683
:101218000101FFF71DFD4FF0000000F073FF4FF4D0
:101228009040C4F2000048F63C31C0F60101FFF7D7
:101238000FFD47E142F68C73C2F201031B78DBB263
:101248006D2B04D100F042F900F05EF93AE142F664
:101258008C73C2F201031B78DBB2712B04D100F04E
:1012680043F900F069F92DE142F68C73C2F20103EB
:101278001B78DBB2632B02D101F0E8FA22E142F6D7
:101288008C73C2F201031B78DBB2662B02D103F028
:10129800D5FC17E142F68C73C2F201031B78DBB26E
:1012A800622B16D14FF49040C4F2000048F6883102
:1012B800C0F60101FFF7CCFC4FF49040C4F20000E7
:1012C80048F63C31C0F60101FFF7C2FC03F040FECE
:1012D800F8E042F68C73C2F201031B78DBB26C2B88
:1012E80016D14FF49040C4F2000048F69431C0F68D
:1012F8000101FFF7ADFC4FF49040C4F2000048F63E
:101308003C31C0F60101FFF7A3FC04F039F9D9E03C
:1013180042F68C73C2F201031B78DBB2722B16D132
:101328004FF49040C4F2000048F69C31C0F6010129
:10133800FFF78EFC4FF49040C4F2000048F63C31B1
:10134800C0F60101FFF784FC03F08EFFBAE042F615
:101358008C73C2F201031B78DBB2732B16D14FF4E6
:101368009040C4F2000048F6A431C0F60101FFF72E
:101378006FFC4FF49040C4F2000048F63C31C0F6D0
:101388000101FFF765FC02F0DDFB9BE042F68C7380
:10139800C2F201031B78DBB2742B7FD101F0E8FBAA
:1013A8000346FB714FF49040C4F2000048F6AC319C
:1013B800C0F60101FFF74CFCFB794FF49040C4F2F2
:1013C80000001946FFF76CFC4FF49040C4F200008F
:1013D80048F63C31C0F60101FFF73AFCFB79002BD7
:1013E80014D14FF49040C4F2000048F6B831C0F66A
:1013F8000101FFF72DFC4FF49040C4F2000048F6BD
:101408003C31C0F60101FFF723FC5BE0FB79012BBF
:1014180014D14FF49040C4F2000048F6C431C0F62D
:101428000101FFF715FC4FF49040C4F2000048F6A4
:101438003C31C0F60101FFF70BFC43E0FB79022BBE
:1014480014D14FF49040C4F2000048F6D031C0F6F1
:101458000101FFF7FDFB4FF49040C4F2000048F68D
:101468003C31C0F60101FFF7F3FB2BE0FB79032BBE
:1014780028D14FF49040C4F2000048F6DC31C0F6A1
:101488000101FFF7E5FB4FF49040C4F2000048F675
:101498003C31C0F60101FFF7DBFB13E04FF490404D
:1014A800C4F2000042F68C71C2F20101FFF7D0FBD2
:1014B8004FF49040C4F2000048F63C31C0F60101F8
:1014C800FFF7C6FB07F10807BD4680BD80B500AF32
:1014D8004FF44060C4F202004FF400714FF0010273
:1014E80013F08CF880BD00BF80B500AF4FF44060AA
:1014F800C4F202004FF400714FF0000213F07EF8BE
:1015080000F01AF880BD00BF80B500AF4FF440600E
:10151800C4F202004FF480614FF0010213F06EF83C
:101528004FF44060C4F202004FF400614FF0010232
:1015380013F064F880BD00BF80B500AF4FF4406081
:10154800C4F202004FF480614FF0000213F056F825
:101558004FF44060C4F202004FF400614FF0000203
:1015680013F04CF84FF0020000F002F880BD00BF05
:1015780080B582B000AF0346FB71FB79002B02D027
:10158800FB79022B0ED140F22803C2F2000340F28D
:1015980053221A604FF40060C4F2000040F2532155
:1015A80014F008FDFB79012B02D0FB79022B0ED138
:1015B80040F22C03C2F2000340F253221A604FF4A7
:1015C8000060C4F2000040F2532114F001FD07F15D
:1015D8000807BD4680BD00BF80B582B000AF786007
:1015E80039604FF40060C4F20000796814F0E2FC3E
:1015F8004FF40060C4F20000396814F0E9FC07F108
:101608000807BD4680BD00BF80B500AF00F004F8F4
:1016180000F044F880BD00BF80B582B000AF4FF045
:1016280008004FF0010113F00BFC4FF460633B60BE
:101638004FF001033B714FF00003BB714FF0030300
:101648007B714FF00003FB713B464FF44060C4F2DE
:101658000200194612F07CFE4FF44060C4F202000A
:101668004FF400714FF0000212F0C8FF4FF44060D1
:10167800C4F202004FF480614FF0000212F0BEFF86
:101688004FF44060C4F202004FF400614FF00002D2
:1016980012F0B4FF07F10807BD4680BD80B58AB0D7
:1016A80000AF4FF004004FF0010113F047FC4FF07A
:1016B80008004FF0010113F0C3FB4FF470433B6285
:1016C8004FF0020387F824304FF0000387F82630E4
:1016D8004FF0030387F825304FF0010387F82730D0
:1016E80007F120034FF44060C4F20200194612F0DB
:1016F8002FFE4FF44060C4F202004FF00C014FF08F
:10170800020212F0B3FF4FF44060C4F202004FF03F
:101718000D014FF0020212F0A9FF4FF44060C4F22D
:1017280002004FF00E014FF0020212F09FFF4FF43B
:101738004060C4F202004FF00F014FF0020212F0B5
:1017480095FF40F2AF43BB614FF00603BB824FF0F9
:101758000003BB834FF00003FB8207F114034FF42F
:101768000060C4F20000194613F0B6FF4FF0700392
:101778003B804FF001037B804FF00003BB8140F2B8
:101788005323BB603B464FF40060C4F20000194687
:1017980014F058F94FF40060C4F200004FF008014B
:1017A80014F09CFC3B464FF40060C4F2000019465C
:1017B80014F0C6F94FF40060C4F200004FF00801BD
:1017C80014F0A8FC3B464FF40060C4F20000194630
:1017D80014F04AFA4FF40060C4F200004FF0080118
:1017E80014F0B8FC3B464FF40060C4F20000194600
:1017F80014F0CAFA4FF40060C4F200004FF0080178
:1018080014F0C4FC4FF40060C4F200004FF0010172
:1018180014F0F8F807F12807BD4680BD80B582B0FE
:1018280000AF4FF001004FF0010113F009FB3B46F8
:10183800184612F02FFE4FF00F033B604FF00003E5
:101848003B714FF003037B714FF00103FB713B4683
:101858004FF00000C4F20200194612F079FD42F67A
:10186800AC70C2F2010000F01FF942F69C70C2F29F
:10187800010000F019F942F6AC73C2F201034FF00F
:1018880001029A8042F6AC73C2F201034FF00402DF
:10189800DA8042F69C73C2F201034FF002029A808A
:1018A80042F69C73C2F201034FF00802DA804FF04F
:1018B80000004FF006014FF0010200F01DF84FF054
:1018C80001004FF007014FF0020200F015F84FF049
:1018D80002004FF008014FF0040200F00DF84FF03D
:1018E80003004FF009014FF0080200F005F807F176
:1018F8000807BD4680BD00BF80B586B000AF0B4667
:101908003A600246FA71BB714FF480404FF0010112
:1019180013F03EFBFB794FF00000194610F0F6FC7F
:101928003B683B614FF000033B754FF010037B753C
:101938004FF00103BB7507F11003184612F062F867
:10194800386812F085F9BB793B734FF003037B735A
:101958004FF00303BB734FF00103FB7307F10C0354
:10196800184610F07DFD07F11807BD4680BD00BF81
:1019780080B500AF4FF0010012F03EF90346002B8E
:1019880015D042F6AC73C2F201031B6803F10102E1
:1019980042F6AC73C2F201031A6042F6AC70C2F2AE
:1019A800010000F097F84FF0010012F051F980BDE6
:1019B80080B500AF4FF0020012F01EF90346002B6D
:1019C80015D042F69C73C2F201031B6803F10102B1
:1019D80042F69C73C2F201031A6042F69C70C2F28E
:1019E800010000F077F84FF0020012F031F980BDE5
:1019F80080B500AF4FF0040012F0FEF80346002B4C
:101A080015D042F6AC73C2F201031B6803F1010260
:101A180042F6AC73C2F201031A6042F6AC70C2F22D
:101A2800010000F057F84FF0040012F011F980BDE2
:101A380080B500AF4FF0080012F0DEF80346002B27
:101A480015D042F69C73C2F201031B6803F1010230
:101A580042F69C73C2F201031A6042F69C70C2F20D
:101A6800010000F037F84FF0080012F0F1F880BDDF
:101A780080B485B000AF78607B68BB604FF000032E
:101A8800BB7307F11407BD4680BC704780B485B0AE
:101A980000AF78607B68BB604FF00103BB7307F150
:101AA8001407BD4680BC704780B483B000AF78602F
:101AB8007B684FF000021A607B684FF000021A72D0
:101AC8007B684FF000025A7207F10C07BD4680BCD4
:101AD800704700BF90B583B000AF78607B681B7A11
:101AE8004FEA8303DBB203F00F03DCB27B689B8809
:101AF8004FF00000C4F20200194612F00BFD034635
:101B08004FEA4303DBB222461343DCB27B68DB882F
:101B18004FF00000C4F20200194612F0FBFC034625
:101B2800DBB222461343DBB2DAB27B681A727B68F7
:101B38001B7A03F00F0240F23003C2F200039A5CF2
:101B48007B685A7207F10C07BD4690BD80B485B01A
:101B580000AF786039607B685B7ABB733B685B7AFF
:101B68007B73BB7B002B06D17B7B002B03D14FF013
:101B78000103FB732AE0BB7B022B06D17B7B012B85
:101B880003D14FF00203FB7320E0BB7B012B06D18E
:101B98007B7B022B03D14FF00303FB7316E0BB7B67
:101BA800012B06D17B7B012B03D14FF00403FB7380
:101BB8000CE0BB7B022B06D17B7B022B03D14FF0C1
:101BC8000503FB7302E04FF00803FB737B684FF0DB
:101BD80000021A723B684FF000021A72FB7B18462B
:101BE80007F11407BD4680BC704700BF80B582B0BE
:101BF80000AF42F6AC70C2F2010042F69C71C2F22C
:101C08000101FFF7A3FF0346FB71FB79184607F1B3
:101C18000807BD4680BD00BF80B582B000AF4FF059
:101C28000500FFF725FF42F6AC73C2F201031B68FB
:101C38007B6042F6AC73C2F201034FF000021A60F7
:101C48004FF00500FFF722FF7B68184607F10807E9
:101C5800BD4680BD80B582B000AF4FF00A00FFF7E7
:101C680007FF42F69C73C2F201031B687B6042F6D1
:101C78009C73C2F201034FF000021A604FF00A0091
:101C8800FFF704FF7B68184607F10807BD4680BDCB
:101C980080B582B000AF4FF00500FFF7E9FE42F6CD
:101CA800AC73C2F201031B687B6042F6AC73C2F2EC
:101CB80001035B7A012B03D17B68C3F100037B60CE
:101CC80042F6AC73C2F201034FF000021A604FF003
:101CD8000500FFF7DBFE7B68184607F10807BD46DD
:101CE80080BD00BF80B582B000AF4FF00A00FFF79B
:101CF800BFFE42F69C73C2F201031B687B6042F68A
:101D08009C73C2F201035B7A022B03D17B68C3F197
:101D180000037B6042F69C73C2F201034FF000029D
:101D28001A604FF00A00FFF7B1FE7B68184607F10A
:101D38000807BD4680BD00BF80B500AF4FF00F005B
:101D4800FFF796FE4FF49040C4F2000048F6E831E1
:101D5800C0F60101FEF77CFF42F6AC73C2F2010344
:101D68005B7A4FF49040C4F200001946FEF798FFE2
:101D78004FF49040C4F2000048F6F431C0F6010177
:101D8800FEF766FF42F69C73C2F201035B7A4FF4DA
:101D98009040C4F200001946FEF782FF42F6AC708C
:101DA800C2F20100FFF796FE42F69C70C2F20100F3
:101DB800FFF790FE4FF49040C4F2000048F600414F
:101DC800C0F60101FEF744FF42F6AC73C2F201030C
:101DD8005B7A4FF49040C4F200001946FEF760FFAA
:101DE8004FF49040C4F2000048F60C41C0F60101DF
:101DF800FEF72EFF42F69C73C2F201035B7A4FF4A2
:101E08009040C4F200001946FEF74AFF4FF4904094
:101E1800C4F2000048F61841C0F60101FEF718FFA9
:101E280042F6AC73C2F201031B684FF49040C4F24F
:101E380000001946FEF734FF4FF49040C4F200004A
:101E480048F62041C0F60101FEF702FF42F69C73F6
:101E5800C2F201031B684FF49040C4F20000194617
:101E6800FEF71EFF4FF49040C4F2000048F62841E8
:101E7800C0F60101FEF7ECFE42F6AC73C2F20103B4
:101E88004FF000021A6042F69C73C2F201034FF051
:101E980000021A604FF00F00FFF7F8FD80BD00BF89
:101EA80080B582B000AF4FF008004FF0010112F08A
:101EB800C7FF4FF0D8033B604FF000033B714FF072
:101EC80002037B714FF00203FB713B464FF4406005
:101ED800C4F20200194612F03BFA07F10807BD46A2
:101EE80080BD00BF80B582B000AF4FF010004FF04A
:101EF800010112F0A5FF4FF00F033B604FF0010303
:101F08003B714FF00003BB714FF003037B714FF03F
:101F18000003FB713B464FF48050C4F2020019469F
:101F280012F016FA4FF48050C4F202004FF001018B
:101F38004FF0000212F062FB4FF48050C4F202002E
:101F48004FF002014FF0000212F058FB4FF480509E
:101F5800C4F202004FF004014FF0000212F04EFBF1
:101F68004FF48050C4F202004FF008014FF0000215
:101F780012F044FB07F10807BD4680BD80B582B06A
:101F880002AFFFF7AFFFFFF78BFF42F22523C0F642
:101F98000003009348F62C40C0F601004FF03201D0
:101FA8004FF001024FF003030FF088FC024642F69F
:101FB800BC73C2F201031A6042F26133C0F6000337
:101FC800009348F65040C0F601004FF032014FF040
:101FD80001024FF003030FF071FC024642F6B8739A
:101FE800C2F201031A60BD4680BD00BF90B585B03E
:101FF80002AF786042F6BC73C2F201031C680EF0AF
:10200800DFFC03464FF00002009220464FF000012B
:102018001A464FF000030FF089FC7B68002B1BD198
:102028004FF48050C4F202004FF001014FF000025B
:1020380012F0E4FA4FF48050C4F202004FF00201AB
:102048004FF0000212F0DAFA40F2B813C2F20003BD
:102058004FF000021A7050E07B68012B25D100F088
:1020680019FA0346012B20D000F014FA0346032B7B
:102078001BD04FF48050C4F202004FF001014FF022
:10208800010212F0BBFA4FF48050C4F202004FF084
:1020980002014FF0000212F0B1FA40F2B813C2F296
:1020A80000034FF001021A7027E07B68022B24D14D
:1020B80000F0F0F90346022B1FD000F0EBF90346BD
:1020C800032B1AD04FF48050C4F202004FF00101E4
:1020D8004FF0000212F092FA4FF48050C4F202005E
:1020E8004FF002014FF0010212F088FA40F2B813E3
:1020F800C2F200034FF002021A7007F10C07BD4646
:1021080090BD00BF90B585B002AF786042F6B87355
:10211800C2F201031C680EF053FC03464FF00002A4
:10212800009220464FF000011A464FF000030FF0CE
:10213800FDFB7B68002B1BD14FF48050C4F20200DA
:102148004FF004014FF0000212F058FA4FF480509B
:10215800C4F202004FF008014FF0000212F04EFAEC
:1021680040F2B913C2F200034FF000021A7050E0B7
:102178007B68012B25D100F0C5F90346012B20D03F
:1021880000F0C0F90346032B1BD04FF48050C4F273
:1021980002004FF004014FF0010212F02FFA4FF441
:1021A8008050C4F202004FF008014FF0000212F014
:1021B80025FA40F2B913C2F200034FF001021A7077
:1021C80027E07B68022B24D100F09CF90346022B00
:1021D8001FD000F097F90346032B1AD04FF4805014
:1021E800C4F202004FF004014FF0000212F006FAA8
:1021F8004FF48050C4F202004FF008014FF0010282
:1022080012F0FCF940F2B913C2F200034FF00202D7
:102218001A7007F10C07BD4690BD00BF80B582B0AB
:1022280002AF40F2B813C2F200031B78012B16D09C
:10223800022B4FD0002B40F0888042F6BC73C2F2CC
:1022480001031B684FF00002009218464FF001018D
:102258004FF000024FF000030FF068FB7AE040F205
:10226800BC13C2F200031B6803F1010240F2BC1365
:10227800C2F200031A6000F00DF90346012B04D0E6
:1022880000F008F90346032B0AD14FF00000FFF7CE
:10229800ADFE40F2B813C2F200034FF000021A700C
:1022A80040F2BC13C2F200031B68132B4FDD4FF042
:1022B8000000FFF79BFE40F2B813C2F200034FF094
:1022C80000021A7040F2BC13C2F200034FF0000281
:1022D8001A603CE040F2BC13C2F200031B6803F131
:1022E800010240F2BC13C2F200031A6000F0D2F8F7
:1022F8000346022B04D000F0CDF80346032B0AD185
:102308004FF00000FFF772FE40F2B813C2F200036C
:102318004FF000021A7040F2BC13C2F200031B68AF
:10232800132B16DD4FF00000FFF760FE40F2B813E4
:10233800C2F200034FF000021A7040F2BC13C2F25E
:1023480000034FF000021A6003E000BF02E000BF84
:1023580000E000BFBD4680BD80B582B002AF40F24C
:10236800B913C2F200031B78012B16D0022B4FD0F1
:10237800002B40F0888042F6B873C2F201031B6854
:102388004FF00002009218464FF001014FF0000292
:102398004FF000030FF0CAFA7AE040F2C013C2F21D
:1023A80000031B6803F1010240F2C013C2F20003EC
:1023B8001A6000F0A7F80346012B04D000F0A2F839
:1023C8000346032B0AD14FF00000FFF79BFE40F2B3
:1023D800B913C2F200034FF000021A7040F2C013A2
:1023E800C2F200031B68132B4FDD4FF00000FFF70C
:1023F80089FE40F2B913C2F200034FF000021A70CE
:1024080040F2C013C2F200034FF000021A603CE031
:1024180040F2C013C2F200031B6803F1010240F24C
:10242800C013C2F200031A6000F06CF80346022BD6
:1024380004D000F067F80346032B0AD14FF00000E0
:10244800FFF760FE40F2B913C2F200034FF000023A
:102458001A7040F2C013C2F200031B68132B16DD7A
:102468004FF00000FFF74EFE40F2B913C2F200032E
:102478004FF000021A7040F2C013C2F200034FF08E
:1024880000021A6003E000BF02E000BF00E000BFE6
:10249800BD4680BD80B500AF4FF44060C4F2020075
:1024A8004FF0080112F036F80346002B0CBF00234A
:1024B8000123DBB21A4640F2C813C2F200031A60C5
:1024C8004FF44060C4F202004FF0100112F022F8FD
:1024D8000346002B02D04FF0020201E04FF0000249
:1024E80040F2C813C2F200031B681A4340F2C81333
:1024F800C2F200031A6040F2C813C2F200031B685C
:10250800184680BD80B500AF4FF44060C4F20200A9
:102518004FF0800111F0FEFF0346002B0CBF002393
:102528000123DBB21A4640F2C413C2F200031A6058
:102538004FF44060C4F202004FF0400111F0EAFF8E
:102548000346002B02D04FF0020201E04FF00002D8
:1025580040F2C413C2F200031B681A4340F2C413CA
:10256800C2F200031A6040F2C413C2F200031B68EF
:10257800184680BD80B582B000AF42F6C073C2F283
:1025880001031B8807EE103AF8EE477AC7ED017A87
:1025980097ED017ADFED357A87EE277ADFED347A29
:1025A80067EE277A9FED337A77EE677AC7ED017A7F
:1025B80097ED017ADFED307A67EE277AC7ED017A79
:1025C8004FF49040C4F2000048F67441C0F601018F
:1025D800FEF73EFB42F6C073C2F201031B884FF4BC
:1025E8009040C4F200001946FEF75AFB4FF49040A1
:1025F800C4F2000048F67C41C0F60101FEF728FB52
:10260800D7ED017AFCEEE77A17EE903A4FF4904056
:10261800C4F200001946FEF743FB4FF49040C4F2A1
:10262800000048F68441C0F60101FEF711FB97ED62
:10263800017ADFED107A67EE277AFCEEE77A17EE7B
:10264800903A4FF49040C4F200001946FEF728FB78
:102658004FF49040C4F2000048F68C41C0F60101E6
:10266800FEF7F6FA07F10807BD4680BD0000804571
:102678000000C0400000A04000007A4480B582B04D
:1026880000AF42F6C073C2F201035B8807EE103A4E
:10269800F8EE477AC7ED017A42F6C073C2F2010339
:1026A8009B8807EE103AF8EE477AC7ED007A97ED67
:1026B800017ADFED637A27EE277ADFED627AC7EEDB
:1026C800277AC7ED017A97ED007ADFED5D7A27EE7C
:1026D800277ADFED5C7AC7EE277AC7ED007A4FF4E8
:1026E8009040C4F2000048F69041C0F60101FEF7A0
:1026F800AFFA42F6C073C2F201035B884FF4904010
:10270800C4F200001946FEF7CBFA4FF49040C4F229
:10271800000048F67C41C0F60101FEF799FAD7EDB2
:10272800017AFCEEE77A17EE903A4FF49040C4F243
:1027380000001946FEF7B4FA4FF49040C4F20000C6
:1027480048F68441C0F60101FEF782FA97ED017A56
:10275800DFED3D7A67EE277AC7ED017AD7ED017A8A
:10276800FCEEE77A17EE903A4FF49040C4F200007E
:102778001946FEF795FA4FF49040C4F2000048F667
:102788008C41C0F60101FEF763FA4FF49040C4F2A1
:10279800000048F69841C0F60101FEF759FA42F6E2
:1027A800C073C2F201039B884FF49040C4F200004A
:1027B8001946FEF775FA4FF49040C4F2000048F647
:1027C8007C41C0F60101FEF743FAD7ED007AFCEE32
:1027D800E77A17EE903A4FF49040C4F20000194699
:1027E800FEF75EFA4FF49040C4F2000048F6A041AC
:1027F800C0F60101FEF72CFA97ED007ADFED127AA8
:1028080067EE277AC7ED007AD7ED007AFCEEE77A13
:1028180017EE903A4FF49040C4F200001946FEF7C4
:102828003FFA4FF49040C4F2000048F68C41C0F6DD
:102838000101FEF70DFA07F10807BD4680BD00BF8C
:1028480000004040000080400000204080B500AFFC
:10285800FFF790FEFFF712FF80BD00BF80B483B082
:1028680000AF42F6C073C2F201031B8807EE103AAC
:10287800F8EE477AC7ED017A97ED017ADFED107A25
:1028880087EE277ADFED0F7A67EE277A9FED0E7ACB
:1028980077EE677AC7ED017A97ED017ADFED0B7A6B
:1028A80067EE277AC7ED017AD7ED017AFDEEE77A70
:1028B80017EE903A184607F10C07BD4680BC7047E2
:1028C800000080450000C0400000A04000007A449D
:1028D80080B483B000AF42F6C073C2F201035B88D4
:1028E8007B6040F2D013C2F200031B684FEAC302B8
:1028F8007B68D21840F2D013C2F200031B68D31AC7
:102908004FEAE3037B6040F2D013C2F200037A6817
:102918001A607B684FEA83027B68D31A4FEAA303E5
:102928007B607B68184607F10C07BD4680BC704782
:1029380080B483B000AF42F6C073C2F201039B8833
:102948007B6040F2CC13C2F200031B684FEAC3025B
:102958007B68D21840F2CC13C2F200031B68D31A6A
:102968004FEAE3037B6040F2CC13C2F200037A68BB
:102978001A607B684FEA83027B68D31A4FEAA30385
:102988007B607B68184607F10C07BD4680BC704722
:1029980080B500AF00F09CF800F018F84FF4005034
:1029A800C4F201004FF0010110F07CF94FF400501F
:1029B800C4F201004FF0010110F058F94FF4005033
:1029C800C4F2010010F092F880BD00BF80B58CB051
:1029D80000AF4FF004004FF0010112F031FA4FF44C
:1029E80080704FF0010112F0D3FA4FF03203BB624E
:1029F8004FF0030387F82C304FF0000387F82F308F
:102A080007F128034FF40060C4F20200194611F0E0
:102A18009FFC4FF000033B614FF001033B754FF003
:102A280001037B754FF00003BB614FF00003FB61AE
:102A38004FF000033B624FF0030387F8243007F19F
:102A480010034FF40050C4F2010019460FF0F0FDD6
:102A58004FF000033B604FF480337B604FF000037E
:102A6800BB604FF00003FB603B4618460FF062FE68
:102A78004FF40050C4F201004FF00B014FF0010277
:102A88004FF001030FF054FF4FF40050C4F201005F
:102A98004FF00E014FF002024FF001030FF048FF14
:102AA8004FF40050C4F201004FF00F014FF0030241
:102AB8004FF001030FF03CFF4FF40050C4F2010047
:102AC8004FF001010FF07EFE07F13007BD4680BDD3
:102AD80080B590B000AF4FF480004FF0010112F0C4
:102AE800AFF94FF000037B6042F24C03C4F20103DC
:102AF800BB6042F6C073C2F20103FB604FF00003F3
:102B08003B614FF003037B614FF00003BB614FF45F
:102B18008063FB614FF400633B624FF400537B62B8
:102B28004FF48073BB624FF40033FB624FF0000335
:102B38003B634FF001037B634FF00003BB634FF02F
:102B48000003FB6307F1040346F21040C4F20200DD
:102B5800194610F04BFC46F21040C4F202004FF048
:102B6800010110F0E1FC07F14007BD4680BD00BF40
:102B780080B582B000AF4FF48050C4F202004FF02D
:102B8800400111F0C7FC0346002B0CBF00230123B2
:102B9800DBB2FB714FF40060C4F202004FF0040195
:102BA80011F0B8FC0346002B02D04FF0020301E0FD
:102BB8004FF00003F9791A460B461343DBB2FB7159
:102BC800FB79184607F10807BD4680BD80B582B07D
:102BD80000AF4FF004004FF0010112F031F94FF04F
:102BE80010004FF0010112F02BF94FF000033B7178
:102BF8004FF002037B714FF00103FB714FF040036C
:102C08003B603B464FF48050C4F20200194611F075
:102C18009FFB4FF004033B603B464FF40060C4F257
:102C28000200194611F094FB07F10807BD4680BD64
:102C380080B483B000AF87ED010AD7ED017AF5EED5
:102C4800C07AF1EE10FA08DD97ED017ADFED0B7A24
:102C580077EE277AFDEEE77A07E097ED017ADFED68
:102C6800077A77EE677AFDEEE77A17EE903A18461C
:102C780007F10C07BD4680BC704700BF0000003F4D
:102C880080B483B000AF87ED010AD7ED017AF5EE85
:102C9800C07AF1EE10FA04DDD7ED017AFDEEE77A9D
:102CA80005E0D7ED017AF1EE677AFDEEE77A17EEE7
:102CB800903A184607F10C07BD4680BC704700BF24
:102CC80080B483B000AF87ED010AD7ED017AF5EE45
:102CD800C07AF1EE10FA02DD4FF07E5303E04FF0B8
:102CE8000003CBF6807307EE903AB0EE670A07F15F
:102CF8000C07BD4680BC704780B483B000AF87ED39
:102D0800010AD7ED017AF5EEC07AF1EE10FA02DD8C
:102D1800D7ED017A03E0D7ED017AF1EE677A17EE85
:102D2800903A07EE903AB0EE670A07F10C07BD46F5
:102D380080BC704780B588B000AF87ED010A4FF0BE
:102D48007E53FB617B68BB614FF002037B614FF0F0
:102D580000033B614FF00003FB602FE097ED077A1B
:102D6800D7ED067A77EE277AC7ED077A97ED067AD8
:102D7800D7ED017A67EE277AC7ED067AD7ED057A9F
:102D8800F8EEE77A97ED067AC7EE277AC7ED067A66
:102D98007B6903F101037B613B6903F101033B613B
:102DA80097ED067ADFED0C7A67EE277AB0EE670AC0
:102DB800FFF766FFF860FB68092B03DD3B69092B09
:102DC800CCDD00E000BFFB6907EE903AB0EE670A81
:102DD80007F12007BD4680BD00007A4480B485B065
:102DE80000AF87ED010A38604FF00003FB604FF039
:102DF8007E53BB604FF00003FB600BE097ED027A57
:102E0800D7ED017A67EE277AC7ED027AFB6803F1FE
:102E18000103FB60FA683B689A42EFDBBB6807EE88
:102E2800903AB0EE670A07F11407BD4680BC7047B8
:102E380080B500AF03F0FEFE43F25460C2F2010019
:102E480048F6A841C0F601014FF0000209F09CFDC8
:102E580003461A4643F25063C2F201031A7043F262
:102E68005063C2F201031B78002B0BD043F250636E
:102E7800C2F201031B7848F6AC40C0F601001946BF
:102E880014F004FF43F2F810C2F2010048F6C04102
:102E9800C0F601014FF00B0209F0C4FD03461A46C3
:102EA80043F25063C2F201031A7043F22440C2F2A3
:102EB800010048F6CC41C0F601014FF00B0209F0C1
:102EC800B1FD03461A4643F25063C2F201031A7079
:102ED80043F25063C2F201031B78002B0BD043F27C
:102EE8005063C2F201031B7848F6D840C0F60100CF
:102EF800194614F0CBFE43F25063C2F201031B786B
:102F0800002B05D148F6F040C0F6010014F0BEFED3
:102F180080BD00BF80B500AF43F2F810C2F20100D7
:102F28000AF0C4FA03461A4643F25063C2F2010398
:102F38001A7043F25063C2F201031B78002B0BD0C6
:102F480043F25063C2F201031B7848F61050C0F6F2
:102F58000100194614F09AFE4FF0000048F6A84107
:102F6800C0F601014FF0000209F00EFD03461A46B3
:102F780043F25063C2F201031A7043F25063C2F283
:102F880001031B78002B0BD043F25063C2F20103FC
:102F98001B7848F62850C0F60100194614F076FE52
:102FA80043F25063C2F201031B78002B05D148F6A7
:102FB8003C50C0F6010014F069FE80BD80B582B0B7
:102FC80000AF7860396007F1040343F22440C2F28D
:102FD800010019464FF0040243F22043C2F20103F4
:102FE8000AF00CF803461A4643F25063C2F2010392
:102FF8001A703B4643F22440C2F2010019464FF0D2
:10300800040243F22043C2F2010309F0F7FF03462A
:103018001A4643F25063C2F201031A7043F2244085
:10302800C2F201000AF07EF903461A4643F25063E1
:10303800C2F201031A7007F10807BD4680BD00BF40
:1030480080B582B000AF40F253237B6007F10403E0
:1030580043F22440C2F2010019464FF0040243F241
:10306800F413C2F2010309F06BFE03461A4643F259
:103078005063C2F201031A7043F22440C2F2010005
:103088000AF050F903461A4643F25063C2F20103AC
:103098001A707B68184607F10807BD4680BD00BF57
:1030A80080B586B002AFF860B9607A603B607B6833
:1030B80000933B68019343F2F810C2F2010048F60E
:1030C8004C51C0F60101FA68BB680BF0A7FA034639
:1030D800DAB243F25063C2F201031A7007F1100723
:1030E800BD4680BD80B588B004AFF860B9607A602D
:1030F8003B607B6800933B680193BB690293FB6963
:10310800039343F2F810C2F2010048F65C51C0F68E
:103118000101FA68BB680BF081FA0346DAB243F2A0
:103128005063C2F201031A7007F11007BD4680BD53
:1031380080B58AB006AFF860B9607A603B607B689A
:1031480000933B680193BB690293FB6903933B6A55
:1031580004937B6A059343F2F810C2F2010048F623
:103168007051C0F60101FA68BB680BF057FA0346C4
:10317800DAB243F25063C2F201031A7007F1100782
:10318800BD4680BD80B58AB006AFF860B9607A6088
:103198003B607B6800933B680193BB690293FB69C2
:1031A80003933B6A04937B6A059343F22440C2F27B
:1031B800010048F67051C0F60101FA68BB680BF0CF
:1031C8002DFA0346DAB243F25063C2F201031A70D1
:1031D80007F11007BD4680BD80B500AF43F2F81077
:1031E800C2F201000AF09EF803461A4643F2506301
:1031F800C2F201031A7043F22440C2F201000AF03D
:1032080091F803461A4643F25063C2F201031A705A
:1032180080BD00BF90B583B002AF43F28123C0F6F2
:103228000003009348F68C50C0F601004FF47A7101
:103238004FF001024FF001030EF040FB024643F24B
:103248001C43C2F201031A6043F21C43C2F2010399
:103258001C680DF0B5FB03464FF0000200922046B3
:103268004FF000011A464FF000030EF05FFB07F124
:103278000407BD4690BD00BF80B500AF40F22803EB
:10328800C2F200031A6843F24863C2F201031A60EB
:1032980040F22C03C2F200031A6843F24863C2F2F8
:1032A80001035A6042F6AC73C2F201031B681A4666
:1032B80043F2EC13C2F201031A6042F69C73C2F2A5
:1032C80001031B681A4643F2EC13C2F201035A6069
:1032D80043F2F810C2F2010043F24861C2F2010160
:1032E8004FF0080243F22043C2F2010309F086FEC0
:1032F80003461A4643F25063C2F201031A7043F2BE
:10330800F810C2F2010043F2EC11C2F201014FF0D1
:10331800080243F22043C2F2010309F06FFE03469C
:103328001A4643F25063C2F201031A7043F2F810CE
:10333800C2F2010009F0F6FF03461A4643F2506351
:10334800C2F201031A7080BD98B500AF48F6A050CC
:10335800C0F6010014F09AFC03F06CFC43F25460D0
:10336800C2F2010048F6A841C0F601014FF0000280
:1033780009F00AFB03461A4643F25063C2F20103FE
:103388001A7043F25063C2F201031B78002B0BD072
:1033980043F25063C2F201031B7848F6AC40C0F612
:1033A8000100194614F072FC43F2F810C2F2010051
:1033B80048F6B451C0F601014FF00B0209F032FB98
:1033C80003461A4643F25063C2F201031A7042F6EA
:1033D800C870C2F2010048F6C051C0F601014FF0B2
:1033E8000B0209F01FFB03461A4643F25063C2F270
:1033F80001031A7043F25063C2F201031B78002BD9
:103408000BD043F25063C2F201031B7848F6C85050
:10341800C0F60100194614F039FC43F2F810C2F264
:10342800010040F25001C2F200014FF00C0243F2D9
:103438002043C2F2010309F0E1FD03461A4643F2B4
:103448005063C2F201031A7043F2F810C2F201008D
:1034580048F6DC51C0F601010BF0E0F80346DAB299
:1034680043F25063C2F201031A7043F24863C2F296
:1034780001031A6843F24863C2F201035B681C4601
:1034880003F1FF3143F24863C2F20103596043F28A
:10349800F810C2F2010048F6E451C0F601012346D3
:1034A8000BF0BCF80346DAB243F25063C2F20103F0
:1034B8001A7048F6F450C0F6010043F2F811C2F24F
:1034C80001010BF06FF80346DAB243F25063C2F21F
:1034D80001031A7043F24863C2F201034FF041023C
:1034E8001A6043F24863C2F201034FF001025A60C6
:1034F80042F6C870C2F2010043F24861C2F201010B
:103508004FF0080243F22043C2F2010309F076FDAE
:1035180003461A4643F25063C2F201031A7043F29B
:103528005063C2F201031B78002B0BD043F25063A7
:10353800C2F201031B7848F60460C0F60100194680
:1035480014F0A4FB43F2F810C2F2010009F0AEFF38
:1035580003461A4643F25063C2F201031A7042F658
:10356800C870C2F2010009F0A1FF03461A4643F2EF
:103578005063C2F201031A7043F25063C2F20103AE
:103588001B78002B0BD043F25063C2F201031B7867
:1035980048F61050C0F60100194614F077FB4FF0BA
:1035A800000048F6A841C0F601014FF0000209F0FA
:1035B800EBF903461A4643F25063C2F201031A704C
:1035C80043F25063C2F201031B78002B0BD043F285
:1035D8005063C2F201031B7848F62850C0F6010078
:1035E800194614F053FB43F25063C2F201031B78EF
:1035F800002B05D148F61860C0F6010014F046FB10
:10360800184698BD80B586B000AF48F63060C0F661
:10361800010014F03BFB43F25460C2F2010048F68B
:10362800A841C0F601014FF0000209F0ADF90346C8
:103638001A4643F25063C2F201031A7043F2506310
:10364800C2F201031B78002B0BD043F25063C2F285
:1036580001031B7848F6AC40C0F60100194614F087
:1036680015FB43F2F810C2F2010048F6B451C0F657
:1036780001014FF0010209F0D5F903461A4643F259
:103688005063C2F201031A7042F6C870C2F2010018
:1036980048F6C051C0F601014FF0010209F0C2F925
:1036A80003461A4643F25063C2F201031A7043F20A
:1036B8005063C2F201031B78002B0BD043F2506316
:1036C800C2F201031B7848F6C850C0F6010019463B
:1036D80014F0DCFA43F24863C2F201034FF001022E
:1036E8001A6043F24863C2F201034FF000025A60C5
:1036F8003B4618464FF0140143F2F812C2F2010299
:103708000AF09CFE3B78002B19D03B464FF49040C2
:10371800C4F200001946FDF79BFA4FF000037B61E5
:1037280009E03A467B69D3184FF000021A707B69AA
:1037380003F101037B617B69132BF2DDD8E700BF3E
:1037480042F6C870C2F2010043F24861C2F20101B8
:103758004FF0080243F2F413C2F2010309F0F0FA41
:1037680003461A4643F25063C2F201031A7043F249
:103778004863C2F201031A6843F24863C2F20103C4
:103788005B6848F64060C0F6010011461A4614F01E
:103798007DFA43F2F810C2F2010009F087FE0346F1
:1037A8001A4643F25063C2F201031A7042F6C87017
:1037B800C2F2010009F07AFE03461A4643F250634A
:1037C800C2F201031A7043F25063C2F201031B787C
:1037D800002B0BD043F25063C2F201031B7848F66A
:1037E8005060C0F60100194614F050FA4FF000007E
:1037F80048F6A841C0F601014FF0000209F0C4F8EC
:1038080003461A4643F25063C2F201031A7043F2A8
:103818005063C2F201031B78002B0BD043F25063B4
:10382800C2F201031B7848F66460C0F6010019462D
:1038380014F02CFA184607F11807BD4680BD00BFE2
:1038480090B585B002AF02460B46FA71BB7140F2E3
:10385800D813C2F200031B784FF49040C4F2000062
:103868001946FDF71DFAFB79782B04D1BB79184668
:10387800FEF7BCFB06E0FB79792B03D1BB79184630
:10388800FEF740FCFB79A3F16203112B00F2B18033
:1038980001A252F823F000BF37390008FB390008AD
:1038A800FB390008FB390008F3380008FB39000829
:1038B800FB390008FB390008FB390008FB39000810
:1038C8007B390008FB390008FB390008FB39000880
:1038D800FB390008FB390008BB390008E938000843
:1038E8004FF00200FDF744FE86E040F2D813C2F222
:1038F80000031B78002B06D040F2D813C2F2000355
:103908001B78022B77D140F2D913C2F200034FF093
:1039180002021A7001F092F94FF49040C4F20000CC
:1039280048F67861C0F60101FDF792F963E040F2CC
:10393800D813C2F200031B78002B06D040F2D8132C
:10394800C2F200031B78032B08D140F2D913C2F24C
:1039580000034FF003021A7001F0FAFA4FF4904096
:10396800C4F2000048F68061C0F60101FDF770F965
:1039780042E040F2D813C2F200031B78002B06D0B5
:1039880040F2D813C2F200031B78042B06D140F290
:10399800D913C2F200034FF004021A704FF490409A
:1039A800C4F2000048F68861C0F60101FDF750F93D
:1039B80022E040F2D813C2F200031B78002B06D095
:1039C80040F2D813C2F200031B78052B06D140F24F
:1039D800D913C2F200034FF005021A704FF4904059
:1039E800C4F2000048F69061C0F60101FDF730F915
:1039F80002E000BF00E000BF43F68403C2F2010307
:103A08001B68002B13D043F68403C2F201031C6821
:103A18000CF0D6FF03464FF00002009220464FF00C
:103A280000011A464FF000030DF080FF29E043F62D
:103A38009523C0F60003009348F69860C0F601008D
:103A48004FF014014FF001024FF007030DF036FF5D
:103A5800024643F68403C2F201031A6043F6840364
:103A6800C2F201031C680CF0ABFF03464FF00002E2
:103A7800009220464FF000011A464FF000030DF067
:103A880055FF07F10C07BD4690BD00BF80B582B059
:103A980002AFFEF7ABF803461A4640F2D813C2F25B
:103AA80000031A704FF49040C4F2000048F6AC616D
:103AB800C0F60101FDF7CCF840F2D813C2F20003BA
:103AC8001B784FF49040C4F200001946FDF7E8F85F
:103AD8004FF49040C4F2000048F6B061C0F601010E
:103AE800FDF7B6F840F2D913C2F200031B78012B98
:103AF8000DD140F2D813C2F200031B78012B06D176
:103B080040F2D813C2F200034FF000021A7040F2DC
:103B1800D813C2F200031B78002B10D143F684039C
:103B2800C2F201031B684FF00002009218464FF0E2
:103B380001014FF000024FF000030DF0F7FEBD4603
:103B480080BD00BF80B500AF4FF00200FDF710FD4B
:103B580040F2D913C2F200034FF001021A7080BD7F
:103B680090B583B002AF40F2D413C2F200034FF015
:103B780032021A6043F69003C2F201031B68002B5D
:103B88001AD043F6B003C2F201031B68002B13D00E
:103B980043F69003C2F201031A6840F22803C2F206
:103BA80000031A6043F6B003C2F201031A6840F238
:103BB8002C03C2F200031A6043F68803C2F2010321
:103BC8001B6818460EF062F90346012B06D143F62E
:103BD8008803C2F201031B68002B2AD143F669430C
:103BE800C0F60003009348F6B460C0F601004FF039
:103BF80064014FF001024FF001030DF05FFE024631
:103C080043F68803C2F201031A6043F68803C2F23E
:103C180001031C680CF0D4FE03464FF0000200922A
:103C280020464FF000011A464FF000030DF07EFECB
:103C380012E043F68803C2F201031C680CF0C0FED0
:103C480003464FF00002009220464FF000011A464A
:103C58004FF000030DF06AFE07F10407BD4690BD62
:103C680080B584B002AFFDF7D7FF03463B60FDF790
:103C7800F1FF03467B6040F2D413C2F200031B68D5
:103C8800002B6FD040F2D913C2F200031B78012B2E
:103C980068D03B68002B02D17B68002B0BD040F228
:103CA800D413C2F200031B6803F1FF3240F2D413AD
:103CB800C2F200031A603B68592B09DD3B68642B8C
:103CC80002DD4FF0FF3301E04FF000031A4601E038
:103CD8004FF0010240F22803C2F200031B68D21819
:103CE80040F22803C2F200031A607B68592B09DDF1
:103CF8007B68642B02DD4FF0FF3301E04FF00003D7
:103D08001A4601E04FF0010240F22C03C2F2000310
:103D18001B68D21840F22C03C2F200031A6040F26A
:103D28002803C2F200031A6840F22C03C2F200030F
:103D38001B6810461946FDF74FFC40F22803C2F2F3
:103D480000031A6843F69003C2F201031A6040F2B6
:103D58002C03C2F200031A6843F6B003C2F201034F
:103D68001A601AE04FF00200FDF702FC3B68002BD6
:103D780013D17B68002B10D143F68803C2F20103EC
:103D88001B684FF00002009218464FF003014FF0F5
:103D980000024FF000030DF0C9FD40F22803C2F203
:103DA8000003186840F22C03C2F2000319683A684D
:103DB8007B68FFF775F907F10807BD4680BD00BFAE
:103DC80090B583B002AF40F2D413C2F200034FF0B3
:103DD80032021A6043F68C03C2F201031B68002BFF
:103DE8001AD043F2F413C2F201031B68002B13D05C
:103DF80043F68C03C2F201031A6840F22803C2F2A8
:103E080000031A6043F2F413C2F201031A6840F285
:103E18002C03C2F200031A6043F68803C2F20103BE
:103E28001B6818460EF032F80346012B06D143F6FC
:103E38008803C2F201031B68002B2AD143F6C96329
:103E4800C0F60003009348F6C460C0F601004FF0C6
:103E580064014FF001024FF002030DF02FFD0246FE
:103E680043F68803C2F201031A6043F68803C2F2DC
:103E780001031C680CF0A4FD03464FF000020092F9
:103E880020464FF000011A464FF000030DF04EFD9A
:103E980012E043F68803C2F201031C680CF090FD9F
:103EA80003464FF00002009220464FF000011A46E8
:103EB8004FF000030DF03AFD07F10407BD4690BD31
:103EC80080B584B002AFFDF7A7FE03463B60FDF75F
:103ED800C1FE03467B6040F2D413C2F200031B68A4
:103EE800002B6DD040F2D913C2F200031B78012BCE
:103EF80066D03B68002B02D17B68002B0BD040F2C8
:103F0800D413C2F200031B6803F1FF3240F2D4134A
:103F1800C2F200031A6040F22803C2F200031A68D2
:103F28003B68592B08DD3B68642B02DD4FF0FF33FB
:103F380001E04FF0000301E04FF00103D21A40F214
:103F48002803C2F200031A6040F22C03C2F20003F5
:103F58001A687B68592B08DD7B68642B02DD4FF0FB
:103F6800FF3301E04FF0000301E04FF00103D21AE4
:103F780040F22C03C2F200031A6040F22803C2F296
:103F880000031A6840F22C03C2F200031B681046B3
:103F98001946FDF721FB40F22803C2F200031A6814
:103FA80043F68C03C2F201031A6040F22C03C2F2FA
:103FB80000031A6843F2F413C2F201031A601AE00C
:103FC8004FF00200FDF7D4FA3B68002B13D17B6851
:103FD800002B10D143F68803C2F201031B684FF08F
:103FE8000002009218464FF003014FF000024FF014
:103FF80000030DF09BFC4FF49040C4F2000048F61B
:10400800D861C0F60101FCF723FE40F22803C2F292
:1040180000031B684FF49040C4F200001946FCF7F7
:104028003FFE4FF49040C4F2000048F6DC61C0F651
:104038000101FCF70DFE40F22C03C2F200031B68DD
:104048004FF49040C4F200001946FCF729FE4FF4E3
:104058009040C4F2000048F6E461C0F60101FCF7A4
:10406800F7FD3B684FF49040C4F200001946FCF796
:1040780017FE4FF49040C4F2000048F6EC61C0F619
:104088000101FCF7E5FD7B684FF49040C4F20000A5
:104098001946FCF705FE4FF49040C4F2000048F6BC
:1040A800F461C0F60101FCF7D3FD40F22803C2F227
:1040B8000003186840F22C03C2F2000319683A683A
:1040C8007B68FEF7EDFF07F10807BD4680BD00BF1E
:1040D800B0B588B002AFFDF79FFD03463B61FDF721
:1040E800B9FD03467B61FEF7B9FB03467B60FEF72B
:1040F800EFFB0346BB60FEF71BFC0346FB6040F288
:10410800D413C2F200031B6803F1010240F2D41376
:10411800C2F200031A6040F2D413C2F200031B6813
:10412800B3F5C87F06D040F2D913C2F200031B785A
:10413800012B52D140F22803C2F200031B6803F19D
:104148000C0240F22803C2F200031A6040F22C036A
:10415800C2F200031B6803F10C0240F22C03C2F206
:1041680000031A6040F22803C2F200031A6840F202
:104178002C03C2F200031B6810461946FDF72CFAFF
:1041880040F2D413C2F200034FF000021A6040F26A
:104198002C03C2F200031B68B3F5617F06D840F216
:1041A800D913C2F200031B78012B16D14FF002007D
:1041B800FDF7DEF943F6AC03C2F201031B684FF0CA
:1041C8000002009218464FF003014FF000024FF032
:1041D80000030DF0ABFBFEF7FFFF40F22803C2F22D
:1041E8000003186840F22C03C2F2000319683A6908
:1041F8007B69BD68FC6800950194FEF773FF07F1C1
:104208001807BD46B0BD00BFB0B586B002AFFDF718
:1042180003FD0346BB60FDF71DFD0346FB60FEF78B
:1042280057FB03463B60FEF783FB03467B6040F287
:10423800D413C2F200031B6803F1010240F2D41345
:10424800C2F200031A6040F2D413C2F200031A68E3
:1042580040F2F3139A4206D840F2D913C2F200038F
:104268001B78012B1CD14FF00200FDF781F9BB68C8
:10427800002B15D1FB68002B12D143F6AC03C2F218
:1042880001031B684FF00002009218464FF003012B
:104298004FF000024FF000030DF048FBFEF79CFFC3
:1042A80040F22803C2F20003186840F22C03C2F25D
:1042B80000031968BA68FB683D687C68009501943A
:1042C800FEF710FF07F11007BD46B0BDB0B586B0C8
:1042D80002AFFDF7A1FC0346BB60FDF7BBFC03463C
:1042E800FB60FEF7F5FA03463B60FEF721FB034649
:1042F8007B6040F2D413C2F200031B68002B4FD03E
:1043080040F2D913C2F200031B78012B48D040F2C7
:10431800D413C2F200031B6803F1FF3240F2D41336
:10432800C2F200031A60D7ED027AF8EEE77A43F694
:104338009400C2F201009FED390AF0EE670A01F01D
:10434800DDF9034603F516731A4640F22803C2F254
:1043580000031A60D7ED037AF8EEE77A43F6B40063
:10436800C2F201009FED2D0AF0EE670A01F0C6F9CE
:10437800034603F516731A4640F22C03C2F20003F3
:104388001A6040F22803C2F200031A6840F22C03B4
:10439800C2F200031B6810461946FDF71DF926E016
:1043A8004FF00200FDF7E4F8BB68002B1FD1FB6853
:1043B800002B1CD143F6AC03C2F201031B684FF07B
:1043C8000002009218464FF003014FF000024FF030
:1043D80000030DF0ABFA4FF49040C4F2000048F629
:1043E800F861C0F60101FCF733FCFEF7F5FE40F278
:1043F8002803C2F20003186840F22C03C2F200033B
:104408001968BA68FB683D687C6800950194FEF7F6
:1044180069FE07F11007BD46B0BD00BF0000A0410E
:1044280090B583B002AF40F22803C2F200034FF008
:1044380060021A6040F22C03C2F200034FF06002DF
:104448001A6040F22803C2F200031A6840F22C03F3
:10445800C2F200031B6810461946FDF7BDF840F28A
:10446800D913C2F200034FF000021A7040F2D413BD
:10447800C2F200034FF000021A6043F6AC03C2F226
:1044880001031B6818460DF001FD0346012B06D1F8
:1044980043F6AC03C2F201031B68002B4AD144F275
:1044A800D903C0F60003009348F60470C0F6010073
:1044B8004FF014014FF001024FF006030DF0FEF922
:1044C800024643F6AC03C2F201031A604FF490406F
:1044D800C4F2000048F61071C0F60101FCF7B8FB01
:1044E80043F6AC03C2F201031B684FF49040C4F2D8
:1044F80000001946FCF7D4FB4FF49040C4F20000CA
:1045080048F6F461C0F60101FCF7A2FB43F6AC03E0
:10451800C2F201031C680CF053FA03464FF0000284
:10452800009220464FF000011A464FF000030DF0AC
:10453800FDF912E043F6AC03C2F201031C680CF06B
:104548003FFA03464FF00002009220464FF0000168
:104558001A464FF000030DF0E9F907F10407BD46CC
:1045680090BD00BFF0B589B004AFFDF791FB0346DD
:10457800BB60FDF7B7FB0346FB60FEF7A9F90346EE
:104588003B60FEF7D5F903467B6040F2DC13C2F2CC
:1045980000034FF000021A6040F2E013C2F2000379
:1045A8004FF000021A6040F2D413C2F200031B68F5
:1045B800002B00F0E58140F2D913C2F200031B780A
:1045C800012B00F0DD8140F2D413C2F200031B6816
:1045D80003F1FF3240F2D413C2F200031A6040F232
:1045E800D413C2F200031A6840F6D8639A420AD973
:1045F800BA68FB68104619469FEDB30ADFEDB20AA8
:1046080001F0B2F993E140F2D413C2F200031A6840
:1046180040F642639A420AD9BA68FB6810461946BE
:104628009FEDAA0ADFEDA80A01F09EF97FE140F2AA
:10463800D413C2F200031A6840F6AC539A420AD95E
:10464800BA68FB68104619469FEDA00ADFED9F0A7D
:1046580001F08AF96BE140F2D413C2F200031A6840
:1046680040F616539A420AD9BA68FB6810461946AA
:104678009FED960ADFED960A01F076F957E140F2D0
:10468800D413C2F200031B68B3F5486F0AD9BA689D
:10469800FB68104619469FED8E0ADFED8D0A01F082
:1046A80063F944E140F2D413C2F200031A6840F6F9
:1046B800B8339A420AD9BA68FB68104619469FED82
:1046C800830ADFED820A01F04FF930E140F2D4139A
:1046D800C2F200031A6840F6BE239A420AD9BA68A1
:1046E800FB68104619469FED7F0ADFED770A01F057
:1046F8003BF91CE140F2D413C2F200031A6840F6F9
:1047080028239A420AD9BA68FB68104619469FEDD1
:10471800750ADFED740A01F027F908E140F2D413B5
:10472800C2F200031B68B3F5166F0AD9BA68FB68B2
:10473800104619469FED6A0ADFED6A0A01F014F97E
:10474800F5E040F2D413C2F200031A6840F6980369
:104758009A420AD9BA68FB68104619469FED600A62
:10476800DFED5C0A01F000F9E1E040F2D413C2F297
:1047780000031A6840F602039A420AD9BA68FB682D
:10478800104619469FED530ADFED520A01F0ECF886
:10479800CDE040F2D413C2F200031B68B3F5E16F19
:1047A8000AD9BA68FB68104619469FED4B0ADFED37
:1047B8004B0A01F0D9F8BAE040F2D413C2F2000370
:1047C8001A6840F272639A420AD9BA68FB681046BE
:1047D80019469FED410ADFED400A01F0C5F8A6E051
:1047E80040F2D413C2F200031A6840F2DC539A4232
:1047F8000AD9BA68FB68104619469FED380ADFEDFA
:10480800360A01F0B1F892E040F2D413C2F2000384
:104818001A6840F2E2439A420AD9BA68FB6810461D
:1048280019469FED2E0ADFED2F0A01F09DF87EE074
:1048380040F2D413C2F200031B68B3F57A7F0AD999
:10484800BA68FB68104619469FED260ADFED1E0A76
:1048580001F08AF86BE040F2D413C2F200031A6840
:1048680040F2EE239A420AD9BA68FB681046194604
:104878009FED150ADFED1B0A01F076F857E040F2CC
:10488800D413C2F200031B68B3F5FA7F0AD9BA68D9
:10489800FB68104619469FED0C0ADFED110A01F07E
:1048A80063F844E040F2D413C2F200031B68FA2B09
:1048B8001AD9BA68FB68104619469FED030ADFED5E
:1048C800070A01F051F832E00000A0400000204142
:1048D800000070410000F0C0000070C1000020C15D
:1048E8000000A0C00000000040F2D413C2F2000390
:1048F8001B68642B0AD9BA68FB68104619461FED75
:10490800070A5FED090A01F02FF810E040F2D4130E
:10491800C2F200031B68002B09D0BA68FB68104676
:1049280019461FED100A5FED110A01F01DF840F25B
:10493800DC13C2F200031B6803F516731A4640F233
:104948002803C2F200031A6040F2E013C2F2000327
:104958001B6803F516731A4640F22C03C2F20003D3
:104968001A6040F22803C2F200031A6840F22C03CE
:10497800C2F200031B6810461946FCF72DFE2DE015
:104988004FF00200FCF7F4FD40F2D913C2F2000325
:104998004FF000021A70BB68002B1FD1FB68002B78
:1049A8001CD143F6AC03C2F201031B684FF00002AE
:1049B800009218464FF003014FF000024FF0000339
:1049C8000CF0B4FF4FF49040C4F2000048F6F861D0
:1049D800C0F60101FCF73CF9FEF7FEFB40F22803A4
:1049E800C2F200031A6840F2F3139A4203D83B68F4
:1049F800C3F100033B6040F22C03C2F200031A68C3
:104A080040F2F3139A4203D87B68C3F100037B603A
:104A180040F22803C2F20003186840F22C03C2F2E5
:104A280000031968BA68FC68D7F800E07E6840F2AD
:104A3800DC13C2F200031D6840F2E013C2F2000367
:104A48001B68CDF800E00196029503932346FEF714
:104A58006FFB07F11407BD46F0BD00BFF0B589B084
:104A680004AFFDF715F90346BB60FDF73BF90346B4
:104A7800FB60FDF72DFF03463B60FDF759FF03463A
:104A88007B6040F2DC13C2F200034FF000021A60B0
:104A980040F2E013C2F200034FF000021A6040F245
:104AA800D413C2F200031B68002B4CD040F2D91378
:104AB800C2F200031B78012B45D040F2D413C2F296
:104AC80000031B6803F1FF3240F2D413C2F2000363
:104AD8001A6040F2D413C2F200031B68002B09D0FD
:104AE800BA68FB68104619469FED520ADFED510A75
:104AF80000F03AFF40F2DC13C2F200031B6803F532
:104B080016731A4640F22803C2F200031A6040F2F4
:104B1800E013C2F200031B6803F516731A4640F24D
:104B28002C03C2F200031A6040F22803C2F2000309
:104B38001A6840F22C03C2F200031B68104619469B
:104B4800FCF74AFD37E04FF00200FCF711FDBA68A8
:104B5800FB68104619469FED380ADFED370A00F06A
:104B680003FF40F2D913C2F200034FF001021A709A
:104B7800BB68002B1FD1FB68002B1CD143F6AC038C
:104B8800C2F201031B684FF00002009218464FF072
:104B980003014FF000024FF000030CF0C7FE4FF482
:104BA8009040C4F2000048F6F861C0F60101FCF735
:104BB8004FF8FEF711FB40F22803C2F200031A680F
:104BC80040F24D239A4203D83B68C3F100033B608F
:104BD80040F22C03C2F200031A6840F24D239A42B5
:104BE80003D87B68C3F100037B6040F22803C2F25C
:104BF8000003186840F22C03C2F200031968BA686F
:104C0800FC68D7F800E07E6840F2DC13C2F20003CB
:104C18001D6840F2E013C2F200031B68CDF800E003
:104C28000196029503932346FEF782FA07F11407CB
:104C3800BD46F0BD0000A0410000000090B583B063
:104C480002AF00F0DFFD40F2D913C2F200034FF0CB
:104C580002021A70FDF71CF8FDF744F840F2280329
:104C6800C2F200034FF416721A6040F22C03C2F22B
:104C780000034FF416721A6040F2D413C2F2000314
:104C88004FF0FA021A6043F6AC03C2F201031B6844
:104C980018460DF0FBF80346012B06D143F6AC038A
:104CA800C2F201031B68002B4AD144F66523C0F603
:104CB8000003009348F60470C0F601004FF0140199
:104CC8004FF001024FF006030CF0F8FD024643F6E0
:104CD800AC03C2F201031A604FF49040C4F2000022
:104CE80048F61071C0F60101FBF7B2FF43F6AC03BA
:104CF800C2F201031B684FF49040C4F20000194649
:104D0800FBF7CEFF4FF49040C4F2000048F6F46180
:104D1800C0F60101FBF79CFF43F6AC03C2F20103A6
:104D28001C680BF04DFE03464FF00002009220462F
:104D38004FF000011A464FF000030CF0F7FD12E0A7
:104D480043F6AC03C2F201031C680BF039FE0346BC
:104D58004FF00002009220464FF000011A464FF033
:104D680000030CF0E3FD07F10407BD4690BD00BF4A
:104D7800F0B589B004AFFCF78BFF0346BB60FCF7C6
:104D8800B1FF0346FB60FDF7A3FD03463B60FDF75B
:104D9800CFFD03467B6040F2DC13C2F200034FF004
:104DA80000021A6040F2E013C2F200034FF0000262
:104DB8001A6040F2D413C2F200031B68002B4CD0D7
:104DC80040F2D913C2F200031B78012B45D040F200
:104DD800D413C2F200031B6803F1FF3240F2D4136C
:104DE800C2F200031A6040F2D413C2F200031B6837
:104DF800002B09D0BA68FB68104619469FED520A85
:104E0800DFED510A00F0B0FD40F2DC13C2F20003FE
:104E18001B6803F516731A4640F22803C2F2000312
:104E28001A6040F2E013C2F200031B6803F5167320
:104E38001A4640F22C03C2F200031A6040F228031B
:104E4800C2F200031A6840F22C03C2F200031B6886
:104E580010461946FCF7C0FB37E04FF00200FCF79C
:104E680087FBBA68FB68104619469FED380ADFEDE4
:104E7800370A00F079FD40F2D913C2F200034FF06F
:104E880001021A70BB68002B1FD1FB68002B1CD1D4
:104E980043F6AC03C2F201031B684FF00002009214
:104EA80018464FF003014FF000024FF000030CF0DA
:104EB8003DFD4FF49040C4F2000048F6F861C0F69A
:104EC8000101FBF7C5FEFEF787F940F22803C2F29D
:104ED80000031A6840F24D239A4203D83B68C3F195
:104EE80000033B6040F22C03C2F200031A6840F250
:104EF8004D239A4203D87B68C3F100037B6040F2DC
:104F08002803C2F20003186840F22C03C2F200031F
:104F18001968BA68FC68D7F800E07E6840F2DC13CC
:104F2800C2F200031D6840F2E013C2F200031B68DE
:104F3800CDF800E00196029503932346FEF7F8F8B2
:104F480007F11407BD46F0BD000070C10000000065
:104F580090B583B002AF00F055FC40F2D913C2F20D
:104F680000034FF002021A70FCF792FEFCF7BAFE3B
:104F780040F22803C2F200034FF416721A6040F29E
:104F88002C03C2F200034FF416721A6040F2D413D5
:104F9800C2F200034FF0FA021A6043F6AC03C2F201
:104FA80001031B6818460CF071FF0346012B06D15C
:104FB80043F6AC03C2F201031B68002B4AD144F646
:104FC8007953C0F60003009348F60470C0F6010058
:104FD8004FF014014FF001024FF006030CF06EFC85
:104FE800024643F6AC03C2F201031A604FF4904044
:104FF800C4F2000048F61071C0F60101FBF728FE64
:1050080043F6AC03C2F201031B684FF49040C4F2AC
:1050180000001946FBF744FE4FF49040C4F200002C
:1050280048F6F461C0F60101FBF712FE43F6AC0343
:10503800C2F201031C680BF0C3FC03464FF00002E8
:10504800009220464FF000011A464FF000030CF082
:105058006DFC12E043F6AC03C2F201031C680BF0CE
:10506800AFFC03464FF00002009220464FF00001CB
:105078001A464FF000030CF059FC07F10407BD462F
:1050880090BD00BFF0B589B004AFFCF701FE034640
:10509800BB60FCF727FE0346FB60FDF719FC0346DF
:1050A8003B60FDF745FC03467B6040F2DC13C2F22F
:1050B80000034FF000021A6040F2E013C2F200034E
:1050C8004FF000021A6040F2D413C2F200031B68CA
:1050D800002B4CD040F2D913C2F200031B78012BED
:1050E80045D040F2D413C2F200031B6803F1FF322B
:1050F80040F2D413C2F200031A6040F2D413C2F291
:1051080000031B68002B09D0BA68FB6810461946D3
:105118009FED520ADFED520A00F026FC40F2DC1344
:10512800C2F200031B6803F516731A4640F22803FF
:10513800C2F200031A6040F2E013C2F200031B68D7
:1051480003F516731A4640F22C03C2F200031A60E4
:1051580040F22803C2F200031A6840F22C03C2F29C
:1051680000031B6810461946FCF736FA37E04FF083
:105178000200FCF7FDF9BA68FB68104619469FED76
:10518800390ADFED380A00F0EFFB40F2D913C2F21A
:1051980000034FF001021A70BB68002B1FD1FB6897
:1051A800002B1CD143F6AC03C2F201031B684FF07D
:1051B8000002009218464FF003014FF000024FF032
:1051C80000030CF0B3FB4FF49040C4F2000048F623
:1051D800F861C0F60101FBF73BFDFDF7FDFF40F26A
:1051E8002803C2F200031A6840F24D239A4203D8FA
:1051F8003B68C3F100033B6040F22C03C2F200039A
:105208001A6840F24D239A4203D87B68C3F1000321
:105218007B6040F22803C2F20003186840F22C03B6
:10522800C2F200031968BA68FC68D7F800E07E6823
:1052380040F2DC13C2F200031D6840F2E013C2F230
:1052480000031B68CDF800E00196029503932346FE
:10525800FDF76EFF07F11407BD46F0BD0000A04141
:10526800000070C10000000090B583B002AF00F0EC
:10527800C9FA40F2D913C2F200034FF002021A70C1
:10528800FCF706FDFCF72EFD40F22803C2F20003EE
:105298004FF416721A6040F22C03C2F200034FF466
:1052A80016721A6040F2D413C2F200034FF0B4022F
:1052B8001A6043F6AC03C2F201031B6818460CF0EF
:1052C800E5FD0346012B06D143F6AC03C2F2010308
:1052D8001B68002B4AD145F28D03C0F600030093EA
:1052E80048F60470C0F601004FF014014FF00102B7
:1052F8004FF006030CF0E2FA024643F6AC03C2F2A2
:1053080001031A604FF49040C4F2000048F610718F
:10531800C0F60101FBF79CFC43F6AC03C2F20103A3
:105328001B684FF49040C4F200001946FBF7B8FC24
:105338004FF49040C4F2000048F6F461C0F6010151
:10534800FBF786FC43F6AC03C2F201031C680BF0C2
:1053580037FB03464FF00002009220464FF0000151
:105368001A464FF000030CF0E1FA12E043F6AC03E2
:10537800C2F201031C680BF023FB03464FF0000246
:10538800009220464FF000011A464FF000030CF03F
:10539800CDFA07F10407BD4690BD00BFF0B589B04E
:1053A80004AFFCF775FC0346BB60FCF79BFC0346A7
:1053B800FB60FDF78DFA03463B60FDF7B9FA03463B
:1053C8007B6040F2DC13C2F200034FF000021A6067
:1053D80040F2E013C2F200034FF000021A6040F2FC
:1053E800D413C2F200031B68002B4CD040F2D9132F
:1053F800C2F200031B78012B45D040F2D413C2F24D
:1054080000031B6803F1FF3240F2D413C2F2000319
:105418001A6040F2D413C2F200031B68002B09D0B3
:10542800BA68FB68104619469FED520ADFED520A2A
:1054380000F09AFA40F2DC13C2F200031B6803F58D
:1054480016731A4640F22803C2F200031A6040F2AB
:10545800E013C2F200031B6803F516731A4640F204
:105468002C03C2F200031A6040F22803C2F20003C0
:105478001A6840F22C03C2F200031B681046194652
:10548800FCF7AAF837E04FF00200FCF771F8BA68A9
:10549800FB68104619469FED390ADFED380A00F01F
:1054A80063FA40F2D913C2F200034FF001021A70F6
:1054B800BB68002B1FD1FB68002B1CD143F6AC0343
:1054C800C2F201031B684FF00002009218464FF029
:1054D80003014FF000024FF000030CF027FA4FF4DD
:1054E8009040C4F2000048F6F861C0F60101FBF7ED
:1054F800AFFBFDF771FE40F22803C2F200031A6801
:1055080040F24D239A4203D83B68C3F100033B6045
:1055180040F22C03C2F200031A6840F24D239A426B
:1055280003D87B68C3F100037B6040F22803C2F212
:105538000003186840F22C03C2F200031968BA6825
:10554800FC68D7F800E07E6840F2DC13C2F2000382
:105558001D6840F2E013C2F200031B68CDF800E0BA
:105568000196029503932346FDF7E2FD07F1140720
:10557800BD46F0BD000070C10000A0410000000061
:1055880090B583B002AF00F03DF940F2D913C2F2F2
:1055980000034FF002021A70FCF77AFBFCF7A2FB3B
:1055A80040F22803C2F200034FF416721A6040F268
:1055B8002C03C2F200034FF416721A6040F2D4139F
:1055C800C2F200034FF0B4021A6043F6AC03C2F211
:1055D80001031B6818460CF059FC0346012B06D141
:1055E80043F6AC03C2F201031B68002B4AD145F213
:1055F800A533C0F60003009348F60470C0F6010016
:105608004FF014014FF001024FF006030CF056F969
:10561800024643F6AC03C2F201031A604FF490400D
:10562800C4F2000048F61071C0F60101FBF710FB48
:1056380043F6AC03C2F201031B684FF49040C4F276
:1056480000001946FBF72CFB4FF49040C4F2000011
:1056580048F6F461C0F60101FBF7FAFA43F6AC0329
:10566800C2F201031C680BF0ABF903464FF00002CD
:10567800009220464FF000011A464FF000030CF04C
:1056880055F912E043F6AC03C2F201031C680BF0B3
:1056980097F903464FF00002009220464FF00001B0
:1056A8001A464FF000030CF041F907F10407BD4614
:1056B80090BD00BF80B485B000AFF86087ED020AE6
:1056C800C7ED010A87ED001AFB68BA681A60FB6823
:1056D8007A685A60FB683A689A60FB684FF0000283
:1056E800DA60FB684FF000021A61FB684FF00002B5
:1056F8005A6107F11407BD4680BC704780B586B073
:1057080000AFF86087ED020AC7ED010A97ED027A4B
:10571800D7ED017A77EE677AC7ED057AFB68D3EDA6
:10572800047A97ED057A77EE677AC7ED047AFB6815
:1057380093ED037AD7ED057A77EE277AFB68C3ED08
:10574800037AFB6893ED007AD7ED057A27EE277A7E
:10575800FB68D3ED016AFB68D3ED037A66EEA77A9E
:1057680037EE277AFB68D3ED026AD7ED047A66EE46
:10577800A77A77EE277AFB68C3ED057AFB6893ED85
:10578800057ADFED157AB4EEE77AF1EE10FA06DD68
:10579800FB684FF00002C4F216425A610BE0FB6846
:1057A800D3ED057AF5EEC07AF1EE10FA03D5FB6871
:1057B8004FF000025A61FB687A691A61FB68D3ED01
:1057C800057AB0EE670AFDF733FA0346184607F183
:1057D8001807BD4680BD00BF0000164480B485B0E0
:1057E80000AFF86087ED020AC7ED010AFB687A6826
:1057F8001A60FB68BA685A6007F11407BD4680BC96
:10580800704700BF80B582B000AF43F6EC00C2F22B
:1058180001009FED510ADFED510AFFF7DFFF43F664
:10582800DC00C2F201009FED4C0ADFED4D0AFFF7E4
:10583800D5FF43F61410C2F201009FED470ADFEDD1
:10584800490AFFF7CBFF43F61C10C2F201009FED97
:10585800420ADFED420AFFF7C1FF43F6F400C2F245
:1058680001009FED3D0ADFED3E0AFFF7B7FF43F663
:10587800D400C2F201009FED380ADFED3A0AFFF7C3
:10588800ADFF43F62813C2F201034FF000021A607D
:1058980043F61013C2F201034FF000021A6043F6F8
:1058A800FC03C2F201034FF000021A6043F624130E
:1058B800C2F201034FF000021A604FF000037B6050
:1058C80034E04FF000033B6029E040F2B802C2F236
:1058D800000279680B464FEA43035B1839685B1886
:1058E8004FEA8303D3184CF6CD42C3F64C621A60D4
:1058F80040F2DC02C2F2000279680B464FEA430329
:105908005B1839685B184FEA8303D3184CF6CD420D
:10591800C3F64C621A603B6803F101033B603B68C5
:10592800022BD2DD7B6803F101037B607B68022BCD
:10593800C7DD40F20013C2F200034FF000021A6004
:1059480040F20013C2F200034FF000025A6007F160
:105958000807BD4680BD00BF000040400681A54045
:10596800000000000681A5C090B58DB004AFF860B6
:10597800B96087ED010AC7ED000AD7ED037AB8EEE2
:10598800E77ADFEDC17A67EE277AC7ED077AD7EDB8
:10599800027AB8EEE77ADFEDBC7A67EE277AC7EDD0
:1059A800067A97ED017ADFEDB87A67EE277AC7EDC8
:1059B800017A97ED007ADFEDB47A67EE277AC7EDC2
:1059C800007A43F6FC03C2F201031A6843F628136F
:1059D800C2F201031A6043F62413C2F201031A68E3
:1059E80043F61013C2F201031A6043F62813C2F2F9
:1059F8000103D3ED007AB0EE670AD7ED010A00F093
:105A080017FAF0EE407A43F6FC03C2F20103C3ED45
:105A1800007A43F61013C2F20103D3ED007AB0EE18
:105A2800670AD7ED000A00F003FAF0EE407A43F671
:105A38002413C2F20103C3ED007A43F6FC03C2F259
:105A4800010393ED006A43F62413C2F20103D3ED78
:105A5800006A43F62813C2F2010393ED007A43F675
:105A68001013C2F20103D3ED007AB0EE460AF0EE4D
:105A7800660AB0EE471AF0EE671A00F005FA43F628
:105A88002813C2F2010393ED007AD7ED077A77EE77
:105A9800677AC7ED057A43F61013C2F2010393ED56
:105AA800007AD7ED067A77EE677AC7ED047A97ED34
:105AB800050AD7ED040A00F03DFB97ED050AD7ED7E
:105AC800040A00F061FA43F60813C2F2010393EDE9
